{"abi":[{"type":"function","name":"main","inputs":[{"name":"unverifiedEmail","type":"tuple","internalType":"struct UnverifiedEmail","components":[{"name":"email","type":"string","internalType":"string"},{"name":"dnsRecord","type":"tuple","internalType":"struct DnsRecord","components":[{"name":"name","type":"string","internalType":"string"},{"name":"recordType","type":"uint8","internalType":"uint8"},{"name":"data","type":"string","internalType":"string"},{"name":"ttl","type":"uint64","internalType":"uint64"}]},{"name":"verificationData","type":"tuple","internalType":"struct VerificationData","components":[{"name":"validUntil","type":"uint64","internalType":"uint64"},{"name":"signature","type":"bytes","internalType":"bytes"},{"name":"pubKey","type":"bytes","internalType":"bytes"}]}]}],"outputs":[{"name":"","type":"tuple","internalType":"struct Proof","components":[{"name":"seal","type":"tuple","internalType":"struct Seal","components":[{"name":"verifierSelector","type":"bytes4","internalType":"bytes4"},{"name":"seal","type":"bytes32[8]","internalType":"bytes32[8]"},{"name":"mode","type":"uint8","internalType":"enum ProofMode"}]},{"name":"callGuestId","type":"bytes32","internalType":"bytes32"},{"name":"length","type":"uint256","internalType":"uint256"},{"name":"callAssumptions","type":"tuple","internalType":"struct CallAssumptions","components":[{"name":"proverContractAddress","type":"address","internalType":"address"},{"name":"functionSelector","type":"bytes4","internalType":"bytes4"},{"name":"settleChainId","type":"uint256","internalType":"uint256"},{"name":"settleBlockNumber","type":"uint256","internalType":"uint256"},{"name":"settleBlockHash","type":"bytes32","internalType":"bytes32"}]}]},{"name":"","type":"bytes32","internalType":"bytes32"},{"name":"","type":"address","internalType":"address"},{"name":"","type":"string","internalType":"string"}],"stateMutability":"view"},{"type":"function","name":"proof","inputs":[],"outputs":[{"name":"","type":"tuple","internalType":"struct Proof","components":[{"name":"seal","type":"tuple","internalType":"struct Seal","components":[{"name":"verifierSelector","type":"bytes4","internalType":"bytes4"},{"name":"seal","type":"bytes32[8]","internalType":"bytes32[8]"},{"name":"mode","type":"uint8","internalType":"enum ProofMode"}]},{"name":"callGuestId","type":"bytes32","internalType":"bytes32"},{"name":"length","type":"uint256","internalType":"uint256"},{"name":"callAssumptions","type":"tuple","internalType":"struct CallAssumptions","components":[{"name":"proverContractAddress","type":"address","internalType":"address"},{"name":"functionSelector","type":"bytes4","internalType":"bytes4"},{"name":"settleChainId","type":"uint256","internalType":"uint256"},{"name":"settleBlockNumber","type":"uint256","internalType":"uint256"},{"name":"settleBlockHash","type":"bytes32","internalType":"bytes32"}]}]}],"stateMutability":"pure"},{"type":"function","name":"setBlock","inputs":[{"name":"blockNo","type":"uint256","internalType":"uint256"}],"outputs":[],"stateMutability":"nonpayable"},{"type":"function","name":"setChain","inputs":[{"name":"chainId","type":"uint256","internalType":"uint256"},{"name":"blockNo","type":"uint256","internalType":"uint256"}],"outputs":[],"stateMutability":"nonpayable"},{"type":"function","name":"stringToAddress","inputs":[{"name":"str","type":"string","internalType":"string"}],"outputs":[{"name":"","type":"address","internalType":"address"}],"stateMutability":"pure"},{"type":"error","name":"FailedInnerCall","inputs":[]}],"bytecode":{"object":"0x608060405234801561001057600080fd5b5061173c806100206000396000f3fe608060405234801561001057600080fd5b50600436106100575760003560e01c806315706fdf1461005c57806387cea3ae1461008c578063ac6981e5146100a1578063faf924cf146100c4578063ffbc5638146100d9575b600080fd5b61006f61006a366004610e85565b6100ec565b6040516001600160a01b0390911681526020015b60405180910390f35b61009f61009a366004610eb9565b610223565b005b6100b46100af366004610ed2565b6102e8565b6040516100839493929190611024565b6100cc610523565b604051610083919061106a565b61009f6100e7366004611079565b610538565b80516000908290602a146101405760405162461bcd60e51b8152602060048201526016602482015275092dcecc2d8d2c840c2c8c8e4cae6e640d8cadccee8d60531b60448201526064015b60405180910390fd5b60408051601480825281830190925260009160208201818036833701905050905060005b601481101561020e576101ab8361017c8360026110b1565b6101879060036110c8565b81518110610197576101976110db565b01602001516001600160f81b031916610608565b6101c5846101ba8460026110b1565b6101879060026110c8565b6101d09060106110f1565b6101da9190611114565b60f81b8282815181106101ef576101ef6110db565b60200101906001600160f81b031916908160001a905350600101610164565b506102188161112d565b60601c949350505050565b6040516343e751d760e11b8152600481018290527376dc9aa45aa006a0f63942d8f9f21bd4537972a3906387cea3ae906024016020604051808303816000875af1158015610275573d6000803e3d6000fd5b505050506040513d601f19601f820116820180604052508101906102999190611169565b6102e55760405162461bcd60e51b815260206004820152601b60248201527f4661696c6564206368656174636f646520696e766f636174696f6e00000000006044820152606401610137565b50565b6102f0610cdf565b60008060608161030761030287611221565b6106d9565b905060006103326040518060600160405280603481526020016116ac60349139604084015190610a68565b905060008151116103855760405162461bcd60e51b815260206004820152601c60248201527f6e6f2077616c6c6574206164647265737320696e207375626a656374000000006044820152606401610137565b60006103aa8260018151811061039d5761039d6110db565b60200260200101516100ec565b905060006103d26040518060600160405280602781526020016116e060279139855190610a68565b9050805160021461041c5760405162461bcd60e51b815260206004820152601460248201527334b73b30b634b21032b6b0b4b6103237b6b0b4b760611b6044820152606401610137565b600081600181518110610431576104316110db565b6020026020010151511161047e5760405162461bcd60e51b815260206004820152601460248201527334b73b30b634b21032b6b0b4b6103237b6b0b4b760611b6044820152606401610137565b610486610523565b845160405160029161049a91602001611323565b60408051601f19818403018152908290526104b491611323565b602060405180830381855afa1580156104d1573d6000803e3d6000fd5b5050506040513d601f19601f820116820180604052508101906104f4919061133f565b8383600181518110610508576105086110db565b60200260200101519750975097509750505050509193509193565b61052b610cdf565b610533610b43565b905090565b60405160016208753960e31b0319815260048101839052602481018290527376dc9aa45aa006a0f63942d8f9f21bd4537972a39063ffbc5638906044016020604051808303816000875af1158015610594573d6000803e3d6000fd5b505050506040513d601f19601f820116820180604052508101906105b89190611169565b6106045760405162461bcd60e51b815260206004820152601b60248201527f4661696c6564206368656174636f646520696e766f636174696f6e00000000006044820152606401610137565b5050565b600060f882901c603081108015906106245750603960ff821611155b1561063b57610634603082611358565b9392505050565b606160ff8216108015906106535750606660ff821611155b1561066f57606161066582600a611114565b6106349190611358565b604160ff8216108015906106875750604660ff821611155b1561069957604161066582600a611114565b60405162461bcd60e51b815260206004820152601560248201527424b73b30b634b2103432bc1031b430b930b1ba32b960591b6044820152606401610137565b6107046040518060800160405280606081526020016060815260200160608152602001606081525090565b428260400151600001516001600160401b0316116107705760405162461bcd60e51b8152602060048201526024808201527f456d61696c50726f6f663a206578706972656420444e532076657269666963616044820152633a34b7b760e11b6064820152608401610137565b610778610b58565b1561080057604080830151015180516020909101207fc16646301c7615357b8f8ee125956b0e5fbf972fa2a0c26feb1f1ae75d04103f146107fb5760405162461bcd60e51b815260206004820152601e60248201527f4e6f7420612076616c69642056444e532068617264636f646564206b657900006044820152606401610137565b6109a3565b610808610b70565b156108d85760408083015181015190516381e4c9a360e01b815273565dca92902ea0ca597b5e62df0b47886b6b7d4d916381e4c9a39161084b9190600401611371565b602060405180830381865afa158015610868573d6000803e3d6000fd5b505050506040513d601f19601f8201168201806040525081019061088c9190611169565b6107fb5760405162461bcd60e51b815260206004820152601b60248201527f4e6f7420612076616c69642056444e53207075626c6963206b657900000000006044820152606401610137565b60408083015181015190516381e4c9a360e01b815273c4e4dc291a5c4debe9ff5a3372f3fdd2e42bac86916381e4c9a3916109169190600401611371565b602060405180830381865afa158015610933573d6000803e3d6000fd5b505050506040513d601f19601f820116820180604052508101906109579190611169565b6109a35760405162461bcd60e51b815260206004820152601b60248201527f4e6f7420612076616c69642056444e53207075626c6963206b657900000000006044820152606401610137565b6000806109c573f4e4fdca9d5d55e64525e314391996a15f7ec6006001611384565b6001600160a01b0316846040516020016109df91906113e5565b60408051601f19818403018152908290526109f991611323565b600060405180830381855afa9150503d8060008114610a34576040519150601f19603f3d011682016040523d82523d6000602084013e610a39565b606091505b5091509150610a488282610bd7565b50600081806020019051810190610a5f91906114c4565b95945050505050565b6060600080610a8c73f4e4fdca9d5d55e64525e314391996a15f7ec6006011611384565b6001600160a01b0316604051806040016040528087815260200186815250604051602001610aba919061159c565b60408051601f1981840301815290829052610ad491611323565b600060405180830381855afa9150503d8060008114610b0f576040519150601f19603f3d011682016040523d82523d6000602084013e610b14565b606091505b5091509150610b238282610bd7565b5080806020019051810190610b3891906115e9565b925050505b92915050565b610b4b610cdf565b610b53610cdf565b919050565b6000610b62610bf3565b806105335750610533610c0a565b60004660011480610b81575046600a145b80610b8c5750466089145b80610b98575046610144145b80610ba45750466101e0145b80610bb0575046612105145b80610bbc57504661a4b1145b80610bc857504661a4ba145b8061053357505061e708461490565b606082610bec57610be782610cb6565b610b3d565b5080610b3d565b600046617a69148061053357505062049919461490565b60008080610c2d73f4e4fdca9d5d55e64525e314391996a15f7ec600601e611384565b6001600160a01b0316604051600060405180830381855afa9150503d8060008114610c74576040519150601f19603f3d011682016040523d82523d6000602084013e610c79565b606091505b5091509150811580610c8a57508051155b15610c985760009250505090565b600081806020019051810190610cae9190611169565b949350505050565b805115610cc65780518082602001fd5b604051630a12f52160e11b815260040160405180910390fd5b6040518060800160405280610cf2610d32565b8152600060208083018290526040808401839052805160a08101825283815291820183905281018290526060818101839052608082019290925291015290565b60408051606081019091526000815260208101610d4d610d59565b81526020016000905290565b6040518061010001604052806008906020820280368337509192915050565b634e487b7160e01b600052604160045260246000fd5b604051606081016001600160401b0381118282101715610db057610db0610d78565b60405290565b604051608081016001600160401b0381118282101715610db057610db0610d78565b604051601f8201601f191681016001600160401b0381118282101715610e0057610e00610d78565b604052919050565b60006001600160401b03821115610e2157610e21610d78565b50601f01601f191660200190565b600082601f830112610e4057600080fd5b8135610e53610e4e82610e08565b610dd8565b818152846020838601011115610e6857600080fd5b816020850160208301376000918101602001919091529392505050565b600060208284031215610e9757600080fd5b81356001600160401b03811115610ead57600080fd5b610cae84828501610e2f565b600060208284031215610ecb57600080fd5b5035919050565b600060208284031215610ee457600080fd5b81356001600160401b03811115610efa57600080fd5b82016060818503121561063457600080fd5b805180516001600160e01b031916835260208082015181850160005b6008811015610f4557825182529183019190830190600101610f28565b505050506040015160028110610f6b57634e487b7160e01b600052602160045260246000fd5b61012083015260208181015161014084015260408083015161016085015260609283015180516001600160a01b0316610180860152918201516001600160e01b0319166101a08501528101516101c0840152908101516101e08301526080015161020090910152565b60005b83811015610fef578181015183820152602001610fd7565b50506000910152565b60008151808452611010816020860160208601610fd4565b601f01601f19169290920160200192915050565b60006102806110338388610f0c565b61022083018690526001600160a01b038516610240840152610260830181905261105f81840185610ff8565b979650505050505050565b6102208101610b3d8284610f0c565b6000806040838503121561108c57600080fd5b50508035926020909101359150565b634e487b7160e01b600052601160045260246000fd5b8082028115828204841417610b3d57610b3d61109b565b80820180821115610b3d57610b3d61109b565b634e487b7160e01b600052603260045260246000fd5b60ff818116838216029081169081811461110d5761110d61109b565b5092915050565b60ff8181168382160190811115610b3d57610b3d61109b565b805160208201516bffffffffffffffffffffffff1980821692919060148310156111615780818460140360031b1b83161693505b505050919050565b60006020828403121561117b57600080fd5b8151801515811461063457600080fd5b80356001600160401b0381168114610b5357600080fd5b6000606082840312156111b457600080fd5b6111bc610d8e565b90506111c78261118b565b815260208201356001600160401b03808211156111e357600080fd5b6111ef85838601610e2f565b6020840152604084013591508082111561120857600080fd5b5061121584828501610e2f565b60408301525092915050565b60006060823603121561123357600080fd5b61123b610d8e565b82356001600160401b038082111561125257600080fd5b61125e36838701610e2f565b8352602085013591508082111561127457600080fd5b81850191506080823603121561128957600080fd5b611291610db6565b8235828111156112a057600080fd5b6112ac36828601610e2f565b825250602083013560ff811681146112c357600080fd5b60208201526040830135828111156112da57600080fd5b6112e636828601610e2f565b6040830152506112f86060840161118b565b60608201526020840152604085013591508082111561131657600080fd5b50611215368286016111a2565b60008251611335818460208701610fd4565b9190910192915050565b60006020828403121561135157600080fd5b5051919050565b60ff8281168282160390811115610b3d57610b3d61109b565b6020815260006106346020830184610ff8565b6001600160a01b0381811683821601908082111561110d5761110d61109b565b6001600160401b03815116825260006020820151606060208501526113cc6060850182610ff8565b905060408301518482036040860152610b388282610ff8565b6020815260008251606060208401526114016080840182610ff8565b90506020840151601f19808584030160408601528151608084526114286080850182610ff8565b905060ff60208401511660208501526040830151848203604086015261144e8282610ff8565b9150506001600160401b036060840151166060850152604087015193508186820301606087015261105f81856113a4565b600082601f83011261149057600080fd5b815161149e610e4e82610e08565b8181528460208386010111156114b357600080fd5b610cae826020830160208701610fd4565b6000602082840312156114d657600080fd5b81516001600160401b03808211156114ed57600080fd5b908301906080828603121561150157600080fd5b611509610db6565b82518281111561151857600080fd5b6115248782860161147f565b82525060208301518281111561153957600080fd5b6115458782860161147f565b60208301525060408301518281111561155d57600080fd5b6115698782860161147f565b60408301525060608301518281111561158157600080fd5b61158d8782860161147f565b60608301525095945050505050565b60208082526000906060830183820185845b60028110156115dd57601f198785030183526115cb848351610ff8565b935091840191908401906001016115ae565b50919695505050505050565b600060208083850312156115fc57600080fd5b82516001600160401b038082111561161357600080fd5b818501915085601f83011261162757600080fd5b81518181111561163957611639610d78565b8060051b611648858201610dd8565b918252838101850191858101908984111561166257600080fd5b86860192505b8383101561169e578251858111156116805760008081fd5b61168e8b89838a010161147f565b8352509186019190860190611668565b999850505050505050505056fe5e4d696e74206d7920646f6d61696e204e465420617420616464726573733a202830785b612d66412d46302d395d7b34307d29245e5b5c772e2d5d2b40285b612d7a412d5a5c642e2d5d2b5c2e5b612d7a412d5a5d7b322c7d2924a2646970667358221220f798b43117156aa52a47688d60f2fc37d5272f0f25af1abbfc5728105030ef0d64736f6c63430008180033","linkReferences":{}},"methodIdentifiers":{"main((string,(string,uint8,string,uint64),(uint64,bytes,bytes)))":"ac6981e5","proof()":"faf924cf","setBlock(uint256)":"87cea3ae","setChain(uint256,uint256)":"ffbc5638","stringToAddress(string)":"15706fdf"},"id":73}