{
    "abi": [
        {
            "type": "function",
            "name": "addVerifiedBus",
            "inputs": [
                {
                    "name": "unverifiedEmail",
                    "type": "tuple",
                    "internalType": "struct UnverifiedEmail",
                    "components": [
                        {
                            "name": "email",
                            "type": "string",
                            "internalType": "string"
                        },
                        {
                            "name": "dnsRecord",
                            "type": "tuple",
                            "internalType": "struct DnsRecord",
                            "components": [
                                {
                                    "name": "name",
                                    "type": "string",
                                    "internalType": "string"
                                },
                                {
                                    "name": "recordType",
                                    "type": "uint8",
                                    "internalType": "uint8"
                                },
                                {
                                    "name": "data",
                                    "type": "string",
                                    "internalType": "string"
                                },
                                {
                                    "name": "ttl",
                                    "type": "uint64",
                                    "internalType": "uint64"
                                }
                            ]
                        },
                        {
                            "name": "verificationData",
                            "type": "tuple",
                            "internalType": "struct VerificationData",
                            "components": [
                                {
                                    "name": "validUntil",
                                    "type": "uint64",
                                    "internalType": "uint64"
                                },
                                {
                                    "name": "signature",
                                    "type": "bytes",
                                    "internalType": "bytes"
                                },
                                {
                                    "name": "pubKey",
                                    "type": "bytes",
                                    "internalType": "bytes"
                                }
                            ]
                        }
                    ]
                }
            ],
            "outputs": [
                {
                    "name": "",
                    "type": "tuple",
                    "internalType": "struct Proof",
                    "components": [
                        {
                            "name": "seal",
                            "type": "tuple",
                            "internalType": "struct Seal",
                            "components": [
                                {
                                    "name": "verifierSelector",
                                    "type": "bytes4",
                                    "internalType": "bytes4"
                                },
                                {
                                    "name": "seal",
                                    "type": "bytes32[8]",
                                    "internalType": "bytes32[8]"
                                },
                                {
                                    "name": "mode",
                                    "type": "uint8",
                                    "internalType": "enum ProofMode"
                                }
                            ]
                        },
                        {
                            "name": "callGuestId",
                            "type": "bytes32",
                            "internalType": "bytes32"
                        },
                        {
                            "name": "length",
                            "type": "uint256",
                            "internalType": "uint256"
                        },
                        {
                            "name": "callAssumptions",
                            "type": "tuple",
                            "internalType": "struct CallAssumptions",
                            "components": [
                                {
                                    "name": "proverContractAddress",
                                    "type": "address",
                                    "internalType": "address"
                                },
                                {
                                    "name": "functionSelector",
                                    "type": "bytes4",
                                    "internalType": "bytes4"
                                },
                                {
                                    "name": "settleChainId",
                                    "type": "uint256",
                                    "internalType": "uint256"
                                },
                                {
                                    "name": "settleBlockNumber",
                                    "type": "uint256",
                                    "internalType": "uint256"
                                },
                                {
                                    "name": "settleBlockHash",
                                    "type": "bytes32",
                                    "internalType": "bytes32"
                                }
                            ]
                        }
                    ]
                },
                {
                    "name": "",
                    "type": "tuple",
                    "internalType": "struct MapProver.VerifiedBooking",
                    "components": [
                        {
                            "name": "emailHash",
                            "type": "bytes32",
                            "internalType": "bytes32"
                        },
                        {
                            "name": "fromDomain",
                            "type": "string",
                            "internalType": "string"
                        },
                        {
                            "name": "toEmail",
                            "type": "string",
                            "internalType": "string"
                        },
                        {
                            "name": "bookingId",
                            "type": "string",
                            "internalType": "string"
                        },
                        {
                            "name": "fromLocation",
                            "type": "string",
                            "internalType": "string"
                        },
                        {
                            "name": "toLocation",
                            "type": "string",
                            "internalType": "string"
                        },
                        {
                            "name": "startDate",
                            "type": "string",
                            "internalType": "string"
                        },
                        {
                            "name": "endDate",
                            "type": "string",
                            "internalType": "string"
                        },
                        {
                            "name": "customerName",
                            "type": "string",
                            "internalType": "string"
                        },
                        {
                            "name": "price",
                            "type": "string",
                            "internalType": "string"
                        },
                        {
                            "name": "provider",
                            "type": "string",
                            "internalType": "string"
                        },
                        {
                            "name": "additionalInfo1",
                            "type": "string",
                            "internalType": "string"
                        },
                        {
                            "name": "additionalInfo2",
                            "type": "string",
                            "internalType": "string"
                        },
                        {
                            "name": "bookingType",
                            "type": "uint8",
                            "internalType": "enum MapProver.BookingType"
                        },
                        {
                            "name": "timestamp",
                            "type": "uint256",
                            "internalType": "uint256"
                        }
                    ]
                }
            ],
            "stateMutability": "nonpayable"
        },
        {
            "type": "function",
            "name": "addVerifiedFlight",
            "inputs": [
                {
                    "name": "unverifiedEmail",
                    "type": "tuple",
                    "internalType": "struct UnverifiedEmail",
                    "components": [
                        {
                            "name": "email",
                            "type": "string",
                            "internalType": "string"
                        },
                        {
                            "name": "dnsRecord",
                            "type": "tuple",
                            "internalType": "struct DnsRecord",
                            "components": [
                                {
                                    "name": "name",
                                    "type": "string",
                                    "internalType": "string"
                                },
                                {
                                    "name": "recordType",
                                    "type": "uint8",
                                    "internalType": "uint8"
                                },
                                {
                                    "name": "data",
                                    "type": "string",
                                    "internalType": "string"
                                },
                                {
                                    "name": "ttl",
                                    "type": "uint64",
                                    "internalType": "uint64"
                                }
                            ]
                        },
                        {
                            "name": "verificationData",
                            "type": "tuple",
                            "internalType": "struct VerificationData",
                            "components": [
                                {
                                    "name": "validUntil",
                                    "type": "uint64",
                                    "internalType": "uint64"
                                },
                                {
                                    "name": "signature",
                                    "type": "bytes",
                                    "internalType": "bytes"
                                },
                                {
                                    "name": "pubKey",
                                    "type": "bytes",
                                    "internalType": "bytes"
                                }
                            ]
                        }
                    ]
                }
            ],
            "outputs": [
                {
                    "name": "",
                    "type": "tuple",
                    "internalType": "struct Proof",
                    "components": [
                        {
                            "name": "seal",
                            "type": "tuple",
                            "internalType": "struct Seal",
                            "components": [
                                {
                                    "name": "verifierSelector",
                                    "type": "bytes4",
                                    "internalType": "bytes4"
                                },
                                {
                                    "name": "seal",
                                    "type": "bytes32[8]",
                                    "internalType": "bytes32[8]"
                                },
                                {
                                    "name": "mode",
                                    "type": "uint8",
                                    "internalType": "enum ProofMode"
                                }
                            ]
                        },
                        {
                            "name": "callGuestId",
                            "type": "bytes32",
                            "internalType": "bytes32"
                        },
                        {
                            "name": "length",
                            "type": "uint256",
                            "internalType": "uint256"
                        },
                        {
                            "name": "callAssumptions",
                            "type": "tuple",
                            "internalType": "struct CallAssumptions",
                            "components": [
                                {
                                    "name": "proverContractAddress",
                                    "type": "address",
                                    "internalType": "address"
                                },
                                {
                                    "name": "functionSelector",
                                    "type": "bytes4",
                                    "internalType": "bytes4"
                                },
                                {
                                    "name": "settleChainId",
                                    "type": "uint256",
                                    "internalType": "uint256"
                                },
                                {
                                    "name": "settleBlockNumber",
                                    "type": "uint256",
                                    "internalType": "uint256"
                                },
                                {
                                    "name": "settleBlockHash",
                                    "type": "bytes32",
                                    "internalType": "bytes32"
                                }
                            ]
                        }
                    ]
                },
                {
                    "name": "",
                    "type": "tuple",
                    "internalType": "struct MapProver.VerifiedBooking",
                    "components": [
                        {
                            "name": "emailHash",
                            "type": "bytes32",
                            "internalType": "bytes32"
                        },
                        {
                            "name": "fromDomain",
                            "type": "string",
                            "internalType": "string"
                        },
                        {
                            "name": "toEmail",
                            "type": "string",
                            "internalType": "string"
                        },
                        {
                            "name": "bookingId",
                            "type": "string",
                            "internalType": "string"
                        },
                        {
                            "name": "fromLocation",
                            "type": "string",
                            "internalType": "string"
                        },
                        {
                            "name": "toLocation",
                            "type": "string",
                            "internalType": "string"
                        },
                        {
                            "name": "startDate",
                            "type": "string",
                            "internalType": "string"
                        },
                        {
                            "name": "endDate",
                            "type": "string",
                            "internalType": "string"
                        },
                        {
                            "name": "customerName",
                            "type": "string",
                            "internalType": "string"
                        },
                        {
                            "name": "price",
                            "type": "string",
                            "internalType": "string"
                        },
                        {
                            "name": "provider",
                            "type": "string",
                            "internalType": "string"
                        },
                        {
                            "name": "additionalInfo1",
                            "type": "string",
                            "internalType": "string"
                        },
                        {
                            "name": "additionalInfo2",
                            "type": "string",
                            "internalType": "string"
                        },
                        {
                            "name": "bookingType",
                            "type": "uint8",
                            "internalType": "enum MapProver.BookingType"
                        },
                        {
                            "name": "timestamp",
                            "type": "uint256",
                            "internalType": "uint256"
                        }
                    ]
                }
            ],
            "stateMutability": "nonpayable"
        },
        {
            "type": "function",
            "name": "addVerifiedHotel",
            "inputs": [
                {
                    "name": "unverifiedEmail",
                    "type": "tuple",
                    "internalType": "struct UnverifiedEmail",
                    "components": [
                        {
                            "name": "email",
                            "type": "string",
                            "internalType": "string"
                        },
                        {
                            "name": "dnsRecord",
                            "type": "tuple",
                            "internalType": "struct DnsRecord",
                            "components": [
                                {
                                    "name": "name",
                                    "type": "string",
                                    "internalType": "string"
                                },
                                {
                                    "name": "recordType",
                                    "type": "uint8",
                                    "internalType": "uint8"
                                },
                                {
                                    "name": "data",
                                    "type": "string",
                                    "internalType": "string"
                                },
                                {
                                    "name": "ttl",
                                    "type": "uint64",
                                    "internalType": "uint64"
                                }
                            ]
                        },
                        {
                            "name": "verificationData",
                            "type": "tuple",
                            "internalType": "struct VerificationData",
                            "components": [
                                {
                                    "name": "validUntil",
                                    "type": "uint64",
                                    "internalType": "uint64"
                                },
                                {
                                    "name": "signature",
                                    "type": "bytes",
                                    "internalType": "bytes"
                                },
                                {
                                    "name": "pubKey",
                                    "type": "bytes",
                                    "internalType": "bytes"
                                }
                            ]
                        }
                    ]
                }
            ],
            "outputs": [
                {
                    "name": "",
                    "type": "tuple",
                    "internalType": "struct Proof",
                    "components": [
                        {
                            "name": "seal",
                            "type": "tuple",
                            "internalType": "struct Seal",
                            "components": [
                                {
                                    "name": "verifierSelector",
                                    "type": "bytes4",
                                    "internalType": "bytes4"
                                },
                                {
                                    "name": "seal",
                                    "type": "bytes32[8]",
                                    "internalType": "bytes32[8]"
                                },
                                {
                                    "name": "mode",
                                    "type": "uint8",
                                    "internalType": "enum ProofMode"
                                }
                            ]
                        },
                        {
                            "name": "callGuestId",
                            "type": "bytes32",
                            "internalType": "bytes32"
                        },
                        {
                            "name": "length",
                            "type": "uint256",
                            "internalType": "uint256"
                        },
                        {
                            "name": "callAssumptions",
                            "type": "tuple",
                            "internalType": "struct CallAssumptions",
                            "components": [
                                {
                                    "name": "proverContractAddress",
                                    "type": "address",
                                    "internalType": "address"
                                },
                                {
                                    "name": "functionSelector",
                                    "type": "bytes4",
                                    "internalType": "bytes4"
                                },
                                {
                                    "name": "settleChainId",
                                    "type": "uint256",
                                    "internalType": "uint256"
                                },
                                {
                                    "name": "settleBlockNumber",
                                    "type": "uint256",
                                    "internalType": "uint256"
                                },
                                {
                                    "name": "settleBlockHash",
                                    "type": "bytes32",
                                    "internalType": "bytes32"
                                }
                            ]
                        }
                    ]
                },
                {
                    "name": "",
                    "type": "tuple",
                    "internalType": "struct MapProver.VerifiedBooking",
                    "components": [
                        {
                            "name": "emailHash",
                            "type": "bytes32",
                            "internalType": "bytes32"
                        },
                        {
                            "name": "fromDomain",
                            "type": "string",
                            "internalType": "string"
                        },
                        {
                            "name": "toEmail",
                            "type": "string",
                            "internalType": "string"
                        },
                        {
                            "name": "bookingId",
                            "type": "string",
                            "internalType": "string"
                        },
                        {
                            "name": "fromLocation",
                            "type": "string",
                            "internalType": "string"
                        },
                        {
                            "name": "toLocation",
                            "type": "string",
                            "internalType": "string"
                        },
                        {
                            "name": "startDate",
                            "type": "string",
                            "internalType": "string"
                        },
                        {
                            "name": "endDate",
                            "type": "string",
                            "internalType": "string"
                        },
                        {
                            "name": "customerName",
                            "type": "string",
                            "internalType": "string"
                        },
                        {
                            "name": "price",
                            "type": "string",
                            "internalType": "string"
                        },
                        {
                            "name": "provider",
                            "type": "string",
                            "internalType": "string"
                        },
                        {
                            "name": "additionalInfo1",
                            "type": "string",
                            "internalType": "string"
                        },
                        {
                            "name": "additionalInfo2",
                            "type": "string",
                            "internalType": "string"
                        },
                        {
                            "name": "bookingType",
                            "type": "uint8",
                            "internalType": "enum MapProver.BookingType"
                        },
                        {
                            "name": "timestamp",
                            "type": "uint256",
                            "internalType": "uint256"
                        }
                    ]
                }
            ],
            "stateMutability": "nonpayable"
        },
        {
            "type": "function",
            "name": "proof",
            "inputs": [],
            "outputs": [
                {
                    "name": "",
                    "type": "tuple",
                    "internalType": "struct Proof",
                    "components": [
                        {
                            "name": "seal",
                            "type": "tuple",
                            "internalType": "struct Seal",
                            "components": [
                                {
                                    "name": "verifierSelector",
                                    "type": "bytes4",
                                    "internalType": "bytes4"
                                },
                                {
                                    "name": "seal",
                                    "type": "bytes32[8]",
                                    "internalType": "bytes32[8]"
                                },
                                {
                                    "name": "mode",
                                    "type": "uint8",
                                    "internalType": "enum ProofMode"
                                }
                            ]
                        },
                        {
                            "name": "callGuestId",
                            "type": "bytes32",
                            "internalType": "bytes32"
                        },
                        {
                            "name": "length",
                            "type": "uint256",
                            "internalType": "uint256"
                        },
                        {
                            "name": "callAssumptions",
                            "type": "tuple",
                            "internalType": "struct CallAssumptions",
                            "components": [
                                {
                                    "name": "proverContractAddress",
                                    "type": "address",
                                    "internalType": "address"
                                },
                                {
                                    "name": "functionSelector",
                                    "type": "bytes4",
                                    "internalType": "bytes4"
                                },
                                {
                                    "name": "settleChainId",
                                    "type": "uint256",
                                    "internalType": "uint256"
                                },
                                {
                                    "name": "settleBlockNumber",
                                    "type": "uint256",
                                    "internalType": "uint256"
                                },
                                {
                                    "name": "settleBlockHash",
                                    "type": "bytes32",
                                    "internalType": "bytes32"
                                }
                            ]
                        }
                    ]
                }
            ],
            "stateMutability": "pure"
        },
        {
            "type": "function",
            "name": "setBlock",
            "inputs": [
                {
                    "name": "blockNo",
                    "type": "uint256",
                    "internalType": "uint256"
                }
            ],
            "outputs": [],
            "stateMutability": "nonpayable"
        },
        {
            "type": "function",
            "name": "setChain",
            "inputs": [
                {
                    "name": "chainId",
                    "type": "uint256",
                    "internalType": "uint256"
                },
                {
                    "name": "blockNo",
                    "type": "uint256",
                    "internalType": "uint256"
                }
            ],
            "outputs": [],
            "stateMutability": "nonpayable"
        },
        {
            "type": "function",
            "name": "stringToAddress",
            "inputs": [
                {
                    "name": "str",
                    "type": "string",
                    "internalType": "string"
                }
            ],
            "outputs": [
                {
                    "name": "",
                    "type": "address",
                    "internalType": "address"
                }
            ],
            "stateMutability": "pure"
        },
        {
            "type": "event",
            "name": "BookingVerified",
            "inputs": [
                {
                    "name": "emailHash",
                    "type": "bytes32",
                    "indexed": true,
                    "internalType": "bytes32"
                },
                {
                    "name": "user",
                    "type": "address",
                    "indexed": true,
                    "internalType": "address"
                },
                {
                    "name": "bookingType",
                    "type": "uint8",
                    "indexed": true,
                    "internalType": "enum MapProver.BookingType"
                },
                {
                    "name": "fromDomain",
                    "type": "string",
                    "indexed": false,
                    "internalType": "string"
                },
                {
                    "name": "bookingId",
                    "type": "string",
                    "indexed": false,
                    "internalType": "string"
                },
                {
                    "name": "fromLocation",
                    "type": "string",
                    "indexed": false,
                    "internalType": "string"
                },
                {
                    "name": "toLocation",
                    "type": "string",
                    "indexed": false,
                    "internalType": "string"
                },
                {
                    "name": "startDate",
                    "type": "string",
                    "indexed": false,
                    "internalType": "string"
                },
                {
                    "name": "endDate",
                    "type": "string",
                    "indexed": false,
                    "internalType": "string"
                },
                {
                    "name": "customerName",
                    "type": "string",
                    "indexed": false,
                    "internalType": "string"
                },
                {
                    "name": "price",
                    "type": "string",
                    "indexed": false,
                    "internalType": "string"
                },
                {
                    "name": "provider",
                    "type": "string",
                    "indexed": false,
                    "internalType": "string"
                },
                {
                    "name": "timestamp",
                    "type": "uint256",
                    "indexed": false,
                    "internalType": "uint256"
                }
            ],
            "anonymous": false
        },
        {
            "type": "event",
            "name": "BusVerified",
            "inputs": [
                {
                    "name": "emailHash",
                    "type": "bytes32",
                    "indexed": true,
                    "internalType": "bytes32"
                },
                {
                    "name": "user",
                    "type": "address",
                    "indexed": true,
                    "internalType": "address"
                },
                {
                    "name": "fromDomain",
                    "type": "string",
                    "indexed": false,
                    "internalType": "string"
                },
                {
                    "name": "ticketNumber",
                    "type": "string",
                    "indexed": false,
                    "internalType": "string"
                },
                {
                    "name": "pnrNumber",
                    "type": "string",
                    "indexed": false,
                    "internalType": "string"
                },
                {
                    "name": "departureCity",
                    "type": "string",
                    "indexed": false,
                    "internalType": "string"
                },
                {
                    "name": "arrivalCity",
                    "type": "string",
                    "indexed": false,
                    "internalType": "string"
                },
                {
                    "name": "travelDate",
                    "type": "string",
                    "indexed": false,
                    "internalType": "string"
                },
                {
                    "name": "passengerName",
                    "type": "string",
                    "indexed": false,
                    "internalType": "string"
                },
                {
                    "name": "seatNumber",
                    "type": "string",
                    "indexed": false,
                    "internalType": "string"
                },
                {
                    "name": "price",
                    "type": "string",
                    "indexed": false,
                    "internalType": "string"
                },
                {
                    "name": "busOperator",
                    "type": "string",
                    "indexed": false,
                    "internalType": "string"
                },
                {
                    "name": "departureTime",
                    "type": "string",
                    "indexed": false,
                    "internalType": "string"
                },
                {
                    "name": "timestamp",
                    "type": "uint256",
                    "indexed": false,
                    "internalType": "uint256"
                }
            ],
            "anonymous": false
        },
        {
            "type": "event",
            "name": "FlightVerified",
            "inputs": [
                {
                    "name": "emailHash",
                    "type": "bytes32",
                    "indexed": true,
                    "internalType": "bytes32"
                },
                {
                    "name": "user",
                    "type": "address",
                    "indexed": true,
                    "internalType": "address"
                },
                {
                    "name": "fromDomain",
                    "type": "string",
                    "indexed": false,
                    "internalType": "string"
                },
                {
                    "name": "bookingId",
                    "type": "string",
                    "indexed": false,
                    "internalType": "string"
                },
                {
                    "name": "departureLocation",
                    "type": "string",
                    "indexed": false,
                    "internalType": "string"
                },
                {
                    "name": "arrivalLocation",
                    "type": "string",
                    "indexed": false,
                    "internalType": "string"
                },
                {
                    "name": "travelDate",
                    "type": "string",
                    "indexed": false,
                    "internalType": "string"
                },
                {
                    "name": "bookingDate",
                    "type": "string",
                    "indexed": false,
                    "internalType": "string"
                },
                {
                    "name": "timestamp",
                    "type": "uint256",
                    "indexed": false,
                    "internalType": "uint256"
                }
            ],
            "anonymous": false
        },
        {
            "type": "event",
            "name": "HotelVerified",
            "inputs": [
                {
                    "name": "emailHash",
                    "type": "bytes32",
                    "indexed": true,
                    "internalType": "bytes32"
                },
                {
                    "name": "user",
                    "type": "address",
                    "indexed": true,
                    "internalType": "address"
                },
                {
                    "name": "fromDomain",
                    "type": "string",
                    "indexed": false,
                    "internalType": "string"
                },
                {
                    "name": "bookingId",
                    "type": "string",
                    "indexed": false,
                    "internalType": "string"
                },
                {
                    "name": "hotelName",
                    "type": "string",
                    "indexed": false,
                    "internalType": "string"
                },
                {
                    "name": "guestName",
                    "type": "string",
                    "indexed": false,
                    "internalType": "string"
                },
                {
                    "name": "checkinDate",
                    "type": "string",
                    "indexed": false,
                    "internalType": "string"
                },
                {
                    "name": "checkoutDate",
                    "type": "string",
                    "indexed": false,
                    "internalType": "string"
                },
                {
                    "name": "location",
                    "type": "string",
                    "indexed": false,
                    "internalType": "string"
                },
                {
                    "name": "totalPrice",
                    "type": "string",
                    "indexed": false,
                    "internalType": "string"
                },
                {
                    "name": "bookingDate",
                    "type": "string",
                    "indexed": false,
                    "internalType": "string"
                },
                {
                    "name": "timestamp",
                    "type": "uint256",
                    "indexed": false,
                    "internalType": "uint256"
                }
            ],
            "anonymous": false
        },
        {
            "type": "error",
            "name": "FailedInnerCall",
            "inputs": []
        }
    ],
    "bytecode": {
        "object": "0x6080604052348015600e575f5ffd5b50614c338061001c5f395ff3fe608060405234801561000f575f5ffd5b506004361061007b575f3560e01c8063a3ac6b2111610059578063a3ac6b21146100fc578063ae3054531461012d578063faf924cf1461015e578063ffbc56381461017c5761007b565b806315706fdf1461007f5780637b1ae989146100af57806387cea3ae146100e0575b5f5ffd5b6100996004803603810190610094919061279c565b610198565b6040516100a69190612822565b60405180910390f35b6100c960048036038101906100c4919061285d565b61033a565b6040516100d7929190612d58565b60405180910390f35b6100fa60048036038101906100f59190612db2565b610908565b005b6101166004803603810190610111919061285d565b6109e5565b604051610124929190612d58565b60405180910390f35b6101476004803603810190610142919061285d565b611237565b604051610155929190612d58565b60405180910390f35b610166611b16565b6040516101739190612ddd565b60405180910390f35b61019660048036038101906101919190612df7565b611b2b565b005b5f5f829050602a8151146101e1576040517f08c379a00000000000000000000000000000000000000000000000000000000081526004016101d890612e8f565b60405180910390fd5b5f601467ffffffffffffffff8111156101fd576101fc612678565b5b6040519080825280601f01601f19166020018201604052801561022f5781602001600182028036833780820191505090505b5090505f5f90505b60148110156103235761027e836002836102519190612eda565b600361025d9190612f1b565b8151811061026e5761026d612f4e565b5b602001015160f81c60f81b611c0b565b60106102be856002856102919190612eda565b600261029d9190612f1b565b815181106102ae576102ad612f4e565b5b602001015160f81c60f81b611c0b565b6102c89190612f87565b6102d29190612fc3565b60f81b8282815181106102e8576102e7612f4e565b5b60200101907effffffffffffffffffffffffffffffffffffffffffffffffffffffffffffff191690815f1a9053508080600101915050610237565b508061032e9061305b565b60601c92505050919050565b610342612498565b61034a6124ca565b5f61035d84610358906133c9565b611e45565b90505f61038f604051806060016040528060338152602001614bcb60339139836040015161219a90919063ffffffff16565b90505f8151116103d4576040517f08c379a00000000000000000000000000000000000000000000000000000000081526004016103cb90613425565b60405180910390fd5b5f816001815181106103e9576103e8612f4e565b5b602002602001015190505f610422604051806060016040528060278152602001614aee60279139855f015161219a90919063ffffffff16565b90506002815114610468576040517f08c379a000000000000000000000000000000000000000000000000000000000815260040161045f9061348d565b60405180910390fd5b5f8160018151811061047d5761047c612f4e565b5b602002602001015151116104c6576040517f08c379a00000000000000000000000000000000000000000000000000000000081526004016104bd9061348d565b60405180910390fd5b5f6104f6604051806060016040528060218152602001614acd60219139866060015161219a90919063ffffffff16565b905060038151101561053d576040517f08c379a0000000000000000000000000000000000000000000000000000000008152600401610534906134f5565b60405180910390fd5b5f8160018151811061055257610551612f4e565b5b602002602001015190505f8260028151811061057157610570612f4e565b5b602002602001015190505f6105ab6040518060600160405280602e8152602001614958602e9139896060015161219a90919063ffffffff16565b90506002815110156105f2576040517f08c379a00000000000000000000000000000000000000000000000000000000081526004016105e99061355d565b60405180910390fd5b5f8160018151811061060757610606612f4e565b5b602002602001015190505f610641604051806060016040528060288152602001614b58602891398b6060015161219a90919063ffffffff16565b9050600281511015610688576040517f08c379a000000000000000000000000000000000000000000000000000000000815260040161067f906135c5565b60405180910390fd5b5f8160018151811061069d5761069c612f4e565b5b602002602001015190505f60028c5f01516040516020016106be919061361d565b6040516020818303038152906040526040516106da919061366d565b602060405180830381855afa1580156106f5573d5f5f3e3d5ffd5b5050506040513d601f19601f8201168201806040525081019061071891906136ad565b90505f604051806101e001604052808381526020018b60018151811061074157610740612f4e565b5b602002602001015181526020018e6020015181526020018c815260200189815260200188815260200186815260200186815260200160405180602001604052805f815250815260200160405180602001604052805f815250815260200160405180602001604052805f815250815260200160405180602001604052805f81525081526020018481526020015f60038111156107df576107de61298c565b5b81526020014281525090505f60038111156107fd576107fc61298c565b5b3373ffffffffffffffffffffffffffffffffffffffff16837fc1c0fdecc8a19be1df6bb38d2cb7195648670284b32c41b302345b6cd14858198d60018151811061084a57610849612f4e565b5b60200260200101518f8d8d8c8d4260405161086b9796959493929190613742565b60405180910390a43373ffffffffffffffffffffffffffffffffffffffff16827f24ba6d384abe0df8fec23005ae545059c53b623965b1729e8ca8fb50e49399e08c6001815181106108c0576108bf612f4e565b5b60200260200101518e8c8c8b8a426040516108e19796959493929190613815565b60405180910390a36108f1611b16565b819e509e5050505050505050505050505050915091565b7f2ae215ce9fde588adfdea92976dc9aa45aa006a0f63942d8f9f21bd4537972a35f1c73ffffffffffffffffffffffffffffffffffffffff166387cea3ae826040518263ffffffff1660e01b815260040161096391906138ac565b6020604051808303815f875af115801561097f573d5f5f3e3d5ffd5b505050506040513d601f19601f820116820180604052508101906109a391906138fa565b6109e2576040517f08c379a00000000000000000000000000000000000000000000000000000000081526004016109d99061396f565b60405180910390fd5b50565b6109ed612498565b6109f56124ca565b5f610a0884610a03906133c9565b611e45565b90505f610a3a6040518060600160405280603881526020016148e660389139836040015161219a90919063ffffffff16565b90505f815111610a7f576040517f08c379a0000000000000000000000000000000000000000000000000000000008152600401610a7690613425565b60405180910390fd5b5f610aae604051806060016040528060278152602001614aee60279139845f015161219a90919063ffffffff16565b90506002815114610af4576040517f08c379a0000000000000000000000000000000000000000000000000000000008152600401610aeb9061348d565b60405180910390fd5b5f81600181518110610b0957610b08612f4e565b5b60200260200101515111610b52576040517f08c379a0000000000000000000000000000000000000000000000000000000008152600401610b499061348d565b60405180910390fd5b5f6002845f0151604051602001610b69919061361d565b604051602081830303815290604052604051610b85919061366d565b602060405180830381855afa158015610ba0573d5f5f3e3d5ffd5b5050506040513d601f19601f82011682018060405250810190610bc391906136ad565b9050610bcd6124ca565b81815f01818152505082600181518110610bea57610be9612f4e565b5b602002602001015181602001819052508460200151816040018190525083600181518110610c1b57610c1a612f4e565b5b602002602001015181606001819052506001816101a001906003811115610c4557610c4461298c565b5b90816003811115610c5957610c5861298c565b5b8152505042816101c0018181525050610c97604051806060016040528060288152602001614ba360289139866060015161219a90919063ffffffff16565b9350600284511015610cde576040517f08c379a0000000000000000000000000000000000000000000000000000000008152600401610cd5906139d7565b60405180910390fd5b83600181518110610cf257610cf1612f4e565b5b6020026020010151816101400181905250610d32604051806060016040528060238152602001614b8060239139866060015161219a90919063ffffffff16565b9350600284511015610d79576040517f08c379a0000000000000000000000000000000000000000000000000000000008152600401610d7090613a3f565b60405180910390fd5b83600181518110610d8d57610d8c612f4e565b5b6020026020010151816101000181905250610dcd60405180608001604052806042815260200161498660429139866060015161219a90919063ffffffff16565b9350600284511015610e14576040517f08c379a0000000000000000000000000000000000000000000000000000000008152600401610e0b90613aa7565b60405180910390fd5b83600181518110610e2857610e27612f4e565b5b60200260200101518160c00181905250610e67604051806080016040528060438152602001614b1560439139866060015161219a90919063ffffffff16565b9350600284511015610eae576040517f08c379a0000000000000000000000000000000000000000000000000000000008152600401610ea590613b0f565b60405180910390fd5b83600181518110610ec257610ec1612f4e565b5b60200260200101518160e00181905250610f1e6040518060400160405280601981526020017f6761706f72652c20285b5e2c5d2b292c20285b302d395d2b2900000000000000815250866060015161219a90919063ffffffff16565b9350600384511015610f65576040517f08c379a0000000000000000000000000000000000000000000000000000000008152600401610f5c90613b77565b60405180910390fd5b83600181518110610f7957610f78612f4e565b5b6020026020010151816080018190525083600181518110610f9d57610f9c612f4e565b5b60200260200101518160a00181905250610fdc604051806060016040528060328152602001614a5760329139866060015161219a90919063ffffffff16565b9350600284511015611023576040517f08c379a000000000000000000000000000000000000000000000000000000000815260040161101a90613bdf565b60405180910390fd5b8360018151811061103757611036612f4e565b5b6020026020010151816101200181905250611077604051806060016040528060308152602001614a2760309139866060015161219a90919063ffffffff16565b93506002845110156110be576040517f08c379a00000000000000000000000000000000000000000000000000000000081526004016110b5906135c5565b60405180910390fd5b60405180602001604052805f815250816101600181905250836001815181106110ea576110e9612f4e565b5b60200260200101518161018001819052506001600381111561110f5761110e61298c565b5b3373ffffffffffffffffffffffffffffffffffffffff16837fc1c0fdecc8a19be1df6bb38d2cb7195648670284b32c41b302345b6cd14858198460200151856060015186608001518760a001518860c001518960e001518a61010001518b61012001518c61014001514260405161118f9a99989796959493929190613bfd565b60405180910390a43373ffffffffffffffffffffffffffffffffffffffff16827fb6e966916c86174d72d225b88f7b646434c6abe7fb7fa9d9a2d3cbac563ecac0836020015184606001518561014001518661010001518760c001518860e0015189608001518a61012001518b6101800151426040516112189a99989796959493929190613bfd565b60405180910390a3611228611b16565b81965096505050505050915091565b61123f612498565b6112476124ca565b5f61125a84611255906133c9565b611e45565b90505f6112a96040518060400160405280601d81526020017f5e726564427573205469636b6574202d20285b412d5a302d395d2b2924000000815250836040015161219a90919063ffffffff16565b90505f8151116112ee576040517f08c379a00000000000000000000000000000000000000000000000000000000081526004016112e590613d20565b60405180910390fd5b5f61131d604051806060016040528060278152602001614aee60279139845f015161219a90919063ffffffff16565b90506002815114611363576040517f08c379a000000000000000000000000000000000000000000000000000000000815260040161135a9061348d565b60405180910390fd5b5f8160018151811061137857611377612f4e565b5b602002602001015151116113c1576040517f08c379a00000000000000000000000000000000000000000000000000000000081526004016113b89061348d565b60405180910390fd5b5f6002845f01516040516020016113d8919061361d565b6040516020818303038152906040526040516113f4919061366d565b602060405180830381855afa15801561140f573d5f5f3e3d5ffd5b5050506040513d601f19601f8201168201806040525081019061143291906136ad565b905061143c6124ca565b81815f0181815250508260018151811061145957611458612f4e565b5b60200260200101518160200181905250846020015181604001819052508360018151811061148a57611489612f4e565b5b602002602001015181606001819052506002816101a0019060038111156114b4576114b361298c565b5b908160038111156114c8576114c761298c565b5b8152505042816101c0018181525050611506604051806060016040528060218152602001614a0660219139866060015161219a90919063ffffffff16565b935060028451101561154d576040517f08c379a000000000000000000000000000000000000000000000000000000000815260040161154490613d88565b60405180910390fd5b8360018151811061156157611560612f4e565b5b60200260200101518161018001819052506115a1604051806080016040528060448152602001614a8960449139866060015161219a90919063ffffffff16565b93506003845110156115e8576040517f08c379a00000000000000000000000000000000000000000000000000000000081526004016115df90613df0565b60405180910390fd5b836001815181106115fc576115fb612f4e565b5b60200260200101518160800181905250836002815181106116205761161f612f4e565b5b60200260200101518160a0018190525061165f6040518060600160405280603a815260200161491e603a9139866060015161219a90919063ffffffff16565b93506003845110156116a6576040517f08c379a000000000000000000000000000000000000000000000000000000000815260040161169d9061355d565b60405180910390fd5b836001815181106116ba576116b9612f4e565b5b60200260200101518160c00181905250836001815181106116de576116dd612f4e565b5b60200260200101518160e001819052505f8460028151811061170357611702612f4e565b5b602002602001015190506117596040518060400160405280602081526020017f636c6173733d3344276c696b6574657874273e20285b412d5a612d7a205d2b29815250876060015161219a90919063ffffffff16565b94506002855110156117a0576040517f08c379a000000000000000000000000000000000000000000000000000000000815260040161179790613e58565b60405180910390fd5b846001815181106117b4576117b3612f4e565b5b60200260200101518261010001819052506118116040518060400160405280602081526020017f636f6c6f723a20236435353835643b223e5c732a285b302d395d2b293c2f703e815250876060015161219a90919063ffffffff16565b9450600285511015611858576040517f08c379a000000000000000000000000000000000000000000000000000000000815260040161184f90613ec0565b60405180910390fd5b8460018151811061186c5761186b612f4e565b5b60200260200101518261016001819052506118c96040518060400160405280601581526020017f52735c2e20285b302d395d2b5c2e5b302d395d2b290000000000000000000000815250876060015161219a90919063ffffffff16565b9450600285511015611910576040517f08c379a000000000000000000000000000000000000000000000000000000000815260040161190790613f28565b60405180910390fd5b8460018151811061192457611923612f4e565b5b60200260200101518261012001819052506119646040518060600160405280603e81526020016149c8603e9139876060015161219a90919063ffffffff16565b94506002855110156119ab576040517f08c379a00000000000000000000000000000000000000000000000000000000081526004016119a290613f90565b60405180910390fd5b846001815181106119bf576119be612f4e565b5b6020026020010151826101400181905250600260038111156119e4576119e361298c565b5b3373ffffffffffffffffffffffffffffffffffffffff16847fc1c0fdecc8a19be1df6bb38d2cb7195648670284b32c41b302345b6cd14858198560200151866060015187608001518860a001518960c001518a60e001518b61010001518c61012001518d610140015142604051611a649a99989796959493929190613bfd565b60405180910390a43373ffffffffffffffffffffffffffffffffffffffff16837fa5a58f77d0c4b99f254b09def644d7ec000f768a4db1c8ebfc500946085279908460200151856060015186610180015187608001518860a001518960c001518a61010001518b61016001518c61012001518d61014001518d42604051611af69c9b9a99989796959493929190613fae565b60405180910390a3611b06611b16565b8297509750505050505050915091565b611b1e612498565b611b26612281565b905090565b7f2ae215ce9fde588adfdea92976dc9aa45aa006a0f63942d8f9f21bd4537972a35f1c73ffffffffffffffffffffffffffffffffffffffff1663ffbc563883836040518363ffffffff1660e01b8152600401611b889291906140b3565b6020604051808303815f875af1158015611ba4573d5f5f3e3d5ffd5b505050506040513d601f19601f82011682018060405250810190611bc891906138fa565b611c07576040517f08c379a0000000000000000000000000000000000000000000000000000000008152600401611bfe9061396f565b60405180910390fd5b5050565b5f5f8260f81c90507f300000000000000000000000000000000000000000000000000000000000000060f81c60ff168160ff1610158015611c7557507f390000000000000000000000000000000000000000000000000000000000000060f81c60ff168160ff1611155b15611cb1577f300000000000000000000000000000000000000000000000000000000000000060f81c81611ca991906140da565b915050611e40565b7f610000000000000000000000000000000000000000000000000000000000000060f81c60ff168160ff1610158015611d1357507f660000000000000000000000000000000000000000000000000000000000000060f81c60ff168160ff1611155b15611d5b577f610000000000000000000000000000000000000000000000000000000000000060f81c81600a611d499190612fc3565b611d5391906140da565b915050611e40565b7f410000000000000000000000000000000000000000000000000000000000000060f81c60ff168160ff1610158015611dbd57507f460000000000000000000000000000000000000000000000000000000000000060f81c60ff168160ff1611155b15611e05577f410000000000000000000000000000000000000000000000000000000000000060f81c81600a611df39190612fc3565b611dfd91906140da565b915050611e40565b6040517f08c379a0000000000000000000000000000000000000000000000000000000008152600401611e3790614158565b60405180910390fd5b919050565b611e4d61254f565b4282604001515f015167ffffffffffffffff1611611ea0576040517f08c379a0000000000000000000000000000000000000000000000000000000008152600401611e97906141e6565b60405180910390fd5b611ea8612298565b15611f25577fc16646301c7615357b8f8ee125956b0e5fbf972fa2a0c26feb1f1ae75d04103f5f1b8260400151604001518051906020012014611f20576040517f08c379a0000000000000000000000000000000000000000000000000000000008152600401611f179061424e565b60405180910390fd5b6120c5565b611f2d6122b5565b15611ffd57611f3a61231d565b73ffffffffffffffffffffffffffffffffffffffff166381e4c9a38360400151604001516040518263ffffffff1660e01b8152600401611f7a91906142b4565b602060405180830381865afa158015611f95573d5f5f3e3d5ffd5b505050506040513d601f19601f82011682018060405250810190611fb991906138fa565b611ff8576040517f08c379a0000000000000000000000000000000000000000000000000000000008152600401611fef9061431e565b60405180910390fd5b6120c4565b612005612338565b73ffffffffffffffffffffffffffffffffffffffff166381e4c9a38360400151604001516040518263ffffffff1660e01b815260040161204591906142b4565b602060405180830381865afa158015612060573d5f5f3e3d5ffd5b505050506040513d601f19601f8201168201806040525081019061208491906138fa565b6120c3576040517f08c379a00000000000000000000000000000000000000000000000000000000081526004016120ba9061431e565b60405180910390fd5b5b5b5f5f600173f4e4fdca9d5d55e64525e314391996a15f7ec6006120e8919061433c565b73ffffffffffffffffffffffffffffffffffffffff168460405160200161210f91906144ff565b60405160208183030381529060405260405161212b919061366d565b5f60405180830381855afa9150503d805f8114612163576040519150601f19603f3d011682016040523d82523d5f602084013e612168565b606091505b50915091506121778282612353565b505f8180602001905181019061218d9190614672565b9050809350505050919050565b60605f5f601173f4e4fdca9d5d55e64525e314391996a15f7ec6006121bf919061433c565b73ffffffffffffffffffffffffffffffffffffffff166040518060400160405280878152602001868152506040516020016121fa9190614768565b604051602081830303815290604052604051612216919061366d565b5f60405180830381855afa9150503d805f811461224e576040519150601f19603f3d011682016040523d82523d5f602084013e612253565b606091505b50915091506122628282612353565b5080806020019051810190612277919061486a565b9250505092915050565b612289612498565b612291612498565b8091505090565b5f6122a1612377565b806122b057506122af61238f565b5b905090565b5f60014614806122c55750600a46145b806122d05750608946145b806122dc575061014446145b806122e857506101e046145b806122f4575061210546145b80612300575061a4b146145b8061230c575061a4ba46145b80612318575061e70846145b905090565b5f73565dca92902ea0ca597b5e62df0b47886b6b7d4d905090565b5f73c4e4dc291a5c4debe9ff5a3372f3fdd2e42bac86905090565b6060826123685761236382612454565b612370565b819050612371565b5b92915050565b5f617a6946148061238a57506204991946145b905090565b5f5f5f601e73f4e4fdca9d5d55e64525e314391996a15f7ec6006123b3919061433c565b73ffffffffffffffffffffffffffffffffffffffff166040516123d5906148d1565b5f60405180830381855afa9150503d805f811461240d576040519150601f19603f3d011682016040523d82523d5f602084013e612412565b606091505b509150915081158061242457505f8151145b15612433575f92505050612451565b5f8180602001905181019061244891906138fa565b90508093505050505b90565b5f815111156124665780518082602001fd5b6040517f1425ea4200000000000000000000000000000000000000000000000000000000815260040160405180910390fd5b60405180608001604052806124ab612577565b81526020015f81526020015f81526020016124c46125cd565b81525090565b604051806101e001604052805f81526020016060815260200160608152602001606081526020016060815260200160608152602001606081526020016060815260200160608152602001606081526020016060815260200160608152602001606081526020015f60038111156125435761254261298c565b5b81526020015f81525090565b6040518060800160405280606081526020016060815260200160608152602001606081525090565b60405180606001604052805f7bffffffffffffffffffffffffffffffffffffffffffffffffffffffff191681526020016125af61262c565b81526020015f60018111156125c7576125c661298c565b5b81525090565b6040518060a001604052805f73ffffffffffffffffffffffffffffffffffffffff1681526020015f7bffffffffffffffffffffffffffffffffffffffffffffffffffffffff191681526020015f81526020015f81526020015f81525090565b604051806101000160405280600890602082028036833780820191505090505090565b5f604051905090565b5f5ffd5b5f5ffd5b5f5ffd5b5f5ffd5b5f601f19601f8301169050919050565b7f4e487b71000000000000000000000000000000000000000000000000000000005f52604160045260245ffd5b6126ae82612668565b810181811067ffffffffffffffff821117156126cd576126cc612678565b5b80604052505050565b5f6126df61264f565b90506126eb82826126a5565b919050565b5f67ffffffffffffffff82111561270a57612709612678565b5b61271382612668565b9050602081019050919050565b828183375f83830152505050565b5f61274061273b846126f0565b6126d6565b90508281526020810184848401111561275c5761275b612664565b5b612767848285612720565b509392505050565b5f82601f83011261278357612782612660565b5b813561279384826020860161272e565b91505092915050565b5f602082840312156127b1576127b0612658565b5b5f82013567ffffffffffffffff8111156127ce576127cd61265c565b5b6127da8482850161276f565b91505092915050565b5f73ffffffffffffffffffffffffffffffffffffffff82169050919050565b5f61280c826127e3565b9050919050565b61281c81612802565b82525050565b5f6020820190506128355f830184612813565b92915050565b5f5ffd5b5f606082840312156128545761285361283b565b5b81905092915050565b5f6020828403121561287257612871612658565b5b5f82013567ffffffffffffffff81111561288f5761288e61265c565b5b61289b8482850161283f565b91505092915050565b5f7fffffffff0000000000000000000000000000000000000000000000000000000082169050919050565b6128d8816128a4565b82525050565b5f60089050919050565b5f81905092915050565b5f819050919050565b5f819050919050565b61290d816128fb565b82525050565b5f61291e8383612904565b60208301905092915050565b5f602082019050919050565b61293f816128de565b61294981846128e8565b9250612954826128f2565b805f5b8381101561298457815161296b8782612913565b96506129768361292a565b925050600181019050612957565b505050505050565b7f4e487b71000000000000000000000000000000000000000000000000000000005f52602160045260245ffd5b600281106129ca576129c961298c565b5b50565b5f8190506129da826129b9565b919050565b5f6129e9826129cd565b9050919050565b6129f9816129df565b82525050565b61014082015f820151612a145f8501826128cf565b506020820151612a276020850182612936565b506040820151612a3b6101208501826129f0565b50505050565b5f819050919050565b612a5381612a41565b82525050565b612a6281612802565b82525050565b60a082015f820151612a7c5f850182612a59565b506020820151612a8f60208501826128cf565b506040820151612aa26040850182612a4a565b506060820151612ab56060850182612a4a565b506080820151612ac86080850182612904565b50505050565b61022082015f820151612ae35f8501826129ff565b506020820151612af7610140850182612904565b506040820151612b0b610160850182612a4a565b506060820151612b1f610180850182612a68565b50505050565b5f81519050919050565b5f82825260208201905092915050565b8281835e5f83830152505050565b5f612b5782612b25565b612b618185612b2f565b9350612b71818560208601612b3f565b612b7a81612668565b840191505092915050565b60048110612b9657612b9561298c565b5b50565b5f819050612ba682612b85565b919050565b5f612bb582612b99565b9050919050565b612bc581612bab565b82525050565b5f6101e083015f830151612be15f860182612904565b5060208301518482036020860152612bf98282612b4d565b91505060408301518482036040860152612c138282612b4d565b91505060608301518482036060860152612c2d8282612b4d565b91505060808301518482036080860152612c478282612b4d565b91505060a083015184820360a0860152612c618282612b4d565b91505060c083015184820360c0860152612c7b8282612b4d565b91505060e083015184820360e0860152612c958282612b4d565b915050610100830151848203610100860152612cb18282612b4d565b915050610120830151848203610120860152612ccd8282612b4d565b915050610140830151848203610140860152612ce98282612b4d565b915050610160830151848203610160860152612d058282612b4d565b915050610180830151848203610180860152612d218282612b4d565b9150506101a0830151612d386101a0860182612bbc565b506101c0830151612d4d6101c0860182612a4a565b508091505092915050565b5f61024082019050612d6c5f830185612ace565b818103610220830152612d7f8184612bcb565b90509392505050565b612d9181612a41565b8114612d9b575f5ffd5b50565b5f81359050612dac81612d88565b92915050565b5f60208284031215612dc757612dc6612658565b5b5f612dd484828501612d9e565b91505092915050565b5f61022082019050612df15f830184612ace565b92915050565b5f5f60408385031215612e0d57612e0c612658565b5b5f612e1a85828601612d9e565b9250506020612e2b85828601612d9e565b9150509250929050565b5f82825260208201905092915050565b7f496e76616c69642061646472657373206c656e677468000000000000000000005f82015250565b5f612e79601683612e35565b9150612e8482612e45565b602082019050919050565b5f6020820190508181035f830152612ea681612e6d565b9050919050565b7f4e487b71000000000000000000000000000000000000000000000000000000005f52601160045260245ffd5b5f612ee482612a41565b9150612eef83612a41565b9250828202612efd81612a41565b91508282048414831517612f1457612f13612ead565b5b5092915050565b5f612f2582612a41565b9150612f3083612a41565b9250828201905080821115612f4857612f47612ead565b5b92915050565b7f4e487b71000000000000000000000000000000000000000000000000000000005f52603260045260245ffd5b5f60ff82169050919050565b5f612f9182612f7b565b9150612f9c83612f7b565b9250828202612faa81612f7b565b9150808214612fbc57612fbb612ead565b5b5092915050565b5f612fcd82612f7b565b9150612fd883612f7b565b9250828201905060ff811115612ff157612ff0612ead565b5b92915050565b5f81519050919050565b5f819050602082019050919050565b5f7fffffffffffffffffffffffffffffffffffffffff00000000000000000000000082169050919050565b5f6130468251613010565b80915050919050565b5f82821b905092915050565b5f61306582612ff7565b8261306f84613001565b905061307a8161303b565b925060148210156130ba576130b57fffffffffffffffffffffffffffffffffffffffff0000000000000000000000008360140360080261304f565b831692505b5050919050565b5f5ffd5b5f5ffd5b6130d281612f7b565b81146130dc575f5ffd5b50565b5f813590506130ed816130c9565b92915050565b5f67ffffffffffffffff82169050919050565b61310f816130f3565b8114613119575f5ffd5b50565b5f8135905061312a81613106565b92915050565b5f60808284031215613145576131446130c1565b5b61314f60806126d6565b90505f82013567ffffffffffffffff81111561316e5761316d6130c5565b5b61317a8482850161276f565b5f83015250602061318d848285016130df565b602083015250604082013567ffffffffffffffff8111156131b1576131b06130c5565b5b6131bd8482850161276f565b60408301525060606131d18482850161311c565b60608301525092915050565b5f67ffffffffffffffff8211156131f7576131f6612678565b5b61320082612668565b9050602081019050919050565b5f61321f61321a846131dd565b6126d6565b90508281526020810184848401111561323b5761323a612664565b5b613246848285612720565b509392505050565b5f82601f83011261326257613261612660565b5b813561327284826020860161320d565b91505092915050565b5f606082840312156132905761328f6130c1565b5b61329a60606126d6565b90505f6132a98482850161311c565b5f83015250602082013567ffffffffffffffff8111156132cc576132cb6130c5565b5b6132d88482850161324e565b602083015250604082013567ffffffffffffffff8111156132fc576132fb6130c5565b5b6133088482850161324e565b60408301525092915050565b5f60608284031215613329576133286130c1565b5b61333360606126d6565b90505f82013567ffffffffffffffff811115613352576133516130c5565b5b61335e8482850161276f565b5f83015250602082013567ffffffffffffffff811115613381576133806130c5565b5b61338d84828501613130565b602083015250604082013567ffffffffffffffff8111156133b1576133b06130c5565b5b6133bd8482850161327b565b60408301525092915050565b5f6133d43683613314565b9050919050565b7f6e6f20626f6f6b696e6720494420696e207375626a65637400000000000000005f82015250565b5f61340f601883612e35565b915061341a826133db565b602082019050919050565b5f6020820190508181035f83015261343c81613403565b9050919050565b7f696e76616c696420656d61696c20646f6d61696e0000000000000000000000005f82015250565b5f613477601483612e35565b915061348282613443565b602082019050919050565b5f6020820190508181035f8301526134a48161346b565b9050919050565b7f696e76616c696420666c6967687420726f7574650000000000000000000000005f82015250565b5f6134df601483612e35565b91506134ea826134ab565b602082019050919050565b5f6020820190508181035f83015261350c816134d3565b9050919050565b7f696e76616c69642074726176656c2064617465000000000000000000000000005f82015250565b5f613547601383612e35565b915061355282613513565b602082019050919050565b5f6020820190508181035f8301526135748161353b565b9050919050565b7f696e76616c696420626f6f6b696e6720646174650000000000000000000000005f82015250565b5f6135af601483612e35565b91506135ba8261357b565b602082019050919050565b5f6020820190508181035f8301526135dc816135a3565b9050919050565b5f81905092915050565b5f6135f782612b25565b61360181856135e3565b9350613611818560208601612b3f565b80840191505092915050565b5f61362882846135ed565b915081905092915050565b5f81905092915050565b5f61364782612ff7565b6136518185613633565b9350613661818560208601612b3f565b80840191505092915050565b5f613678828461363d565b915081905092915050565b61368c816128fb565b8114613696575f5ffd5b50565b5f815190506136a781613683565b92915050565b5f602082840312156136c2576136c1612658565b5b5f6136cf84828501613699565b91505092915050565b5f6136e282612b25565b6136ec8185612e35565b93506136fc818560208601612b3f565b61370581612668565b840191505092915050565b50565b5f61371e5f83612e35565b915061372982613710565b5f82019050919050565b61373c81612a41565b82525050565b5f610140820190508181035f83015261375b818a6136d8565b9050818103602083015261376f81896136d8565b9050818103604083015261378381886136d8565b9050818103606083015261379781876136d8565b905081810360808301526137ab81866136d8565b905081810360a08301526137bf81856136d8565b905081810360c08301526137d281613713565b905081810360e08301526137e581613713565b90508181036101008301526137f981613713565b9050613809610120830184613733565b98975050505050505050565b5f60e0820190508181035f83015261382d818a6136d8565b9050818103602083015261384181896136d8565b9050818103604083015261385581886136d8565b9050818103606083015261386981876136d8565b9050818103608083015261387d81866136d8565b905081810360a083015261389181856136d8565b90506138a060c0830184613733565b98975050505050505050565b5f6020820190506138bf5f830184613733565b92915050565b5f8115159050919050565b6138d9816138c5565b81146138e3575f5ffd5b50565b5f815190506138f4816138d0565b92915050565b5f6020828403121561390f5761390e612658565b5b5f61391c848285016138e6565b91505092915050565b7f4661696c6564206368656174636f646520696e766f636174696f6e00000000005f82015250565b5f613959601b83612e35565b915061396482613925565b602082019050919050565b5f6020820190508181035f8301526139868161394d565b9050919050565b7f696e76616c696420686f74656c206e616d6500000000000000000000000000005f82015250565b5f6139c1601283612e35565b91506139cc8261398d565b602082019050919050565b5f6020820190508181035f8301526139ee816139b5565b9050919050565b7f696e76616c6964206775657374206e616d6500000000000000000000000000005f82015250565b5f613a29601283612e35565b9150613a34826139f5565b602082019050919050565b5f6020820190508181035f830152613a5681613a1d565b9050919050565b7f696e76616c696420636865636b2d696e206461746500000000000000000000005f82015250565b5f613a91601583612e35565b9150613a9c82613a5d565b602082019050919050565b5f6020820190508181035f830152613abe81613a85565b9050919050565b7f696e76616c696420636865636b2d6f75742064617465000000000000000000005f82015250565b5f613af9601683612e35565b9150613b0482613ac5565b602082019050919050565b5f6020820190508181035f830152613b2681613aed565b9050919050565b7f696e76616c6964206c6f636174696f6e000000000000000000000000000000005f82015250565b5f613b61601083612e35565b9150613b6c82613b2d565b602082019050919050565b5f6020820190508181035f830152613b8e81613b55565b9050919050565b7f696e76616c696420746f74616c207072696365000000000000000000000000005f82015250565b5f613bc9601383612e35565b9150613bd482613b95565b602082019050919050565b5f6020820190508181035f830152613bf681613bbd565b9050919050565b5f610140820190508181035f830152613c16818d6136d8565b90508181036020830152613c2a818c6136d8565b90508181036040830152613c3e818b6136d8565b90508181036060830152613c52818a6136d8565b90508181036080830152613c6681896136d8565b905081810360a0830152613c7a81886136d8565b905081810360c0830152613c8e81876136d8565b905081810360e0830152613ca281866136d8565b9050818103610100830152613cb781856136d8565b9050613cc7610120830184613733565b9b9a5050505050505050505050565b7f6e6f207469636b6574206e756d62657220696e207375626a65637400000000005f82015250565b5f613d0a601b83612e35565b9150613d1582613cd6565b602082019050919050565b5f6020820190508181035f830152613d3781613cfe565b9050919050565b7f696e76616c696420504e52206e756d62657200000000000000000000000000005f82015250565b5f613d72601283612e35565b9150613d7d82613d3e565b602082019050919050565b5f6020820190508181035f830152613d9f81613d66565b9050919050565b7f696e76616c6964206a6f75726e657920726f75746500000000000000000000005f82015250565b5f613dda601583612e35565b9150613de582613da6565b602082019050919050565b5f6020820190508181035f830152613e0781613dce565b9050919050565b7f696e76616c69642070617373656e676572206e616d65000000000000000000005f82015250565b5f613e42601683612e35565b9150613e4d82613e0e565b602082019050919050565b5f6020820190508181035f830152613e6f81613e36565b9050919050565b7f696e76616c69642073656174206e756d626572000000000000000000000000005f82015250565b5f613eaa601383612e35565b9150613eb582613e76565b602082019050919050565b5f6020820190508181035f830152613ed781613e9e565b9050919050565b7f696e76616c6964207072696365000000000000000000000000000000000000005f82015250565b5f613f12600d83612e35565b9150613f1d82613ede565b602082019050919050565b5f6020820190508181035f830152613f3f81613f06565b9050919050565b7f696e76616c696420627573206f70657261746f720000000000000000000000005f82015250565b5f613f7a601483612e35565b9150613f8582613f46565b602082019050919050565b5f6020820190508181035f830152613fa781613f6e565b9050919050565b5f610180820190508181035f830152613fc7818f6136d8565b90508181036020830152613fdb818e6136d8565b90508181036040830152613fef818d6136d8565b90508181036060830152614003818c6136d8565b90508181036080830152614017818b6136d8565b905081810360a083015261402b818a6136d8565b905081810360c083015261403f81896136d8565b905081810360e083015261405381886136d8565b905081810361010083015261406881876136d8565b905081810361012083015261407d81866136d8565b905081810361014083015261409281856136d8565b90506140a2610160830184613733565b9d9c50505050505050505050505050565b5f6040820190506140c65f830185613733565b6140d36020830184613733565b9392505050565b5f6140e482612f7b565b91506140ef83612f7b565b9250828203905060ff81111561410857614107612ead565b5b92915050565b7f496e76616c6964206865782063686172616374657200000000000000000000005f82015250565b5f614142601583612e35565b915061414d8261410e565b602082019050919050565b5f6020820190508181035f83015261416f81614136565b9050919050565b7f456d61696c50726f6f663a206578706972656420444e532076657269666963615f8201527f74696f6e00000000000000000000000000000000000000000000000000000000602082015250565b5f6141d0602483612e35565b91506141db82614176565b604082019050919050565b5f6020820190508181035f8301526141fd816141c4565b9050919050565b7f4e6f7420612076616c69642056444e532068617264636f646564206b657900005f82015250565b5f614238601e83612e35565b915061424382614204565b602082019050919050565b5f6020820190508181035f8301526142658161422c565b9050919050565b5f82825260208201905092915050565b5f61428682612ff7565b614290818561426c565b93506142a0818560208601612b3f565b6142a981612668565b840191505092915050565b5f6020820190508181035f8301526142cc818461427c565b905092915050565b7f4e6f7420612076616c69642056444e53207075626c6963206b657900000000005f82015250565b5f614308601b83612e35565b9150614313826142d4565b602082019050919050565b5f6020820190508181035f830152614335816142fc565b9050919050565b5f614346826127e3565b9150614351836127e3565b9250828201905073ffffffffffffffffffffffffffffffffffffffff81111561437d5761437c612ead565b5b92915050565b61438c81612f7b565b82525050565b61439b816130f3565b82525050565b5f608083015f8301518482035f8601526143bb8282612b4d565b91505060208301516143d06020860182614383565b50604083015184820360408601526143e88282612b4d565b91505060608301516143fd6060860182614392565b508091505092915050565b5f82825260208201905092915050565b5f61442282612ff7565b61442c8185614408565b935061443c818560208601612b3f565b61444581612668565b840191505092915050565b5f606083015f8301516144655f860182614392565b506020830151848203602086015261447d8282614418565b915050604083015184820360408601526144978282614418565b9150508091505092915050565b5f606083015f8301518482035f8601526144be8282612b4d565b915050602083015184820360208601526144d882826143a1565b915050604083015184820360408601526144f28282614450565b9150508091505092915050565b5f6020820190508181035f83015261451781846144a4565b905092915050565b5f61453161452c846126f0565b6126d6565b90508281526020810184848401111561454d5761454c612664565b5b614558848285612b3f565b509392505050565b5f82601f83011261457457614573612660565b5b815161458484826020860161451f565b91505092915050565b5f608082840312156145a2576145a16130c1565b5b6145ac60806126d6565b90505f82015167ffffffffffffffff8111156145cb576145ca6130c5565b5b6145d784828501614560565b5f83015250602082015167ffffffffffffffff8111156145fa576145f96130c5565b5b61460684828501614560565b602083015250604082015167ffffffffffffffff81111561462a576146296130c5565b5b61463684828501614560565b604083015250606082015167ffffffffffffffff81111561465a576146596130c5565b5b61466684828501614560565b60608301525092915050565b5f6020828403121561468757614686612658565b5b5f82015167ffffffffffffffff8111156146a4576146a361265c565b5b6146b08482850161458d565b91505092915050565b5f60029050919050565b5f81905092915050565b5f819050919050565b5f6146e18383612b4d565b905092915050565b5f602082019050919050565b5f6146ff826146b9565b61470981856146c3565b93508360208202850161471b856146cd565b805f5b85811015614756578484038952815161473785826146d6565b9450614742836146e9565b925060208a0199505060018101905061471e565b50829750879550505050505092915050565b5f6020820190508181035f83015261478081846146f5565b905092915050565b5f67ffffffffffffffff8211156147a2576147a1612678565b5b602082029050602081019050919050565b5f5ffd5b5f6147c96147c484614788565b6126d6565b905080838252602082019050602084028301858111156147ec576147eb6147b3565b5b835b8181101561483357805167ffffffffffffffff81111561481157614810612660565b5b80860161481e8982614560565b855260208501945050506020810190506147ee565b5050509392505050565b5f82601f83011261485157614850612660565b5b81516148618482602086016147b7565b91505092915050565b5f6020828403121561487f5761487e612658565b5b5f82015167ffffffffffffffff81111561489c5761489b61265c565b5b6148a88482850161483d565b91505092915050565b5f6148bc5f83613633565b91506148c782613710565b5f82019050919050565b5f6148db826148b1565b915081905091905056fe5e426f6f6b696e6720636f6e6669726d6174696f6e20776974682041676f6461202d20426f6f6b696e672049443a20285b302d395d2b2924285b302d395d7b327d2f5b302d395d7b327d2f5b302d395d7b347d292c20285b302d395d7b327d3a5b302d395d7b327d205b412d5a5d7b327d29526f756e6420747269702e2a3f285b412d5a612d7a5d7b337d2c205b302d395d7b327d205b412d5a612d7a5d2b2969643d334422636865636b696e2d64617465223e5c732a285b412d5a612d7a5d2b2c205b412d5a612d7a5d2b205b302d395d7b312c327d2c205b302d395d7b347d29636f6c6f723a20233437343735643b666f6e742d66616d696c793a20726f626f746f5b5e3e5d2b223e5c732a285b412d5a612d7a5d2b29203c2f6469763e504e52266e6273703b4e6f3a266e6273703b3c623e285b302d395d2b293c2f623e446174653a205b412d5a612d7a5d2b2c20285b302d395d7b312c327d205b412d5a612d7a5d2b205b302d395d7b347d2969643d334422746f74616c2d70726963652d76616c7565223e5c732a53474420285b302d395d2b5c2e5b302d395d7b327d29285b412d5a612d7a5d2b292d285b412d5a612d7a5d2b29206f6e205b412d5a612d7a5d2b2c205b412d5a612d7a5d2b205b302d395d7b312c327d2c205b302d395d7b347d285b412d5a612d7a5c735d2b29202d20285b412d5a612d7a5c735c285c295d2b295e5b5c772e2d5d2b40285b612d7a412d5a5c642e2d5d2b5c2e5b612d7a412d5a5d7b322c7d292469643d334422636865636b6f75742d64617465223e5c732a285b412d5a612d7a5d2b2c205b412d5a612d7a5d2b205b302d395d7b312c327d2c205b302d395d7b347d29426f6f6b6564206f6e20285b302d395d7b327d205b412d5a612d7a5d2b2c205b302d395d7b347d2969643d334422626f6f6b696e672d6c6561646775657374223e5c732a285b5e3c5d2b2969643d3344226c626c486f74656c4e616d6544617461223e285b5e3c5d2b293c2f7374726f6e673e5e452d5469636b657420666f7220596f757220466c6967687420426f6f6b696e67204944203a20285b412d5a302d395d2b2924a26469706673582212203926b24d7f82394f9d2ad6a2b5f59374d346b313c3552249550f5216a199507364736f6c634300081e0033",
        "linkReferences": {}
    },
    "methodIdentifiers": {
        "addVerifiedBus((string,(string,uint8,string,uint64),(uint64,bytes,bytes)))": "ae305453",
        "addVerifiedFlight((string,(string,uint8,string,uint64),(uint64,bytes,bytes)))": "7b1ae989",
        "addVerifiedHotel((string,(string,uint8,string,uint64),(uint64,bytes,bytes)))": "a3ac6b21",
        "proof()": "faf924cf",
        "setBlock(uint256)": "87cea3ae",
        "setChain(uint256,uint256)": "ffbc5638",
        "stringToAddress(string)": "15706fdf"
    },
    "id": 40
}