{"abi":[{"type":"constructor","inputs":[{"name":"_prover","type":"address","internalType":"address"}],"stateMutability":"nonpayable"},{"type":"function","name":"_setTestVerifier","inputs":[{"name":"newVerifier","type":"address","internalType":"contract IProofVerifier"}],"outputs":[],"stateMutability":"nonpayable"},{"type":"function","name":"approve","inputs":[{"name":"to","type":"address","internalType":"address"},{"name":"tokenId","type":"uint256","internalType":"uint256"}],"outputs":[],"stateMutability":"nonpayable"},{"type":"function","name":"balanceOf","inputs":[{"name":"owner","type":"address","internalType":"address"}],"outputs":[{"name":"","type":"uint256","internalType":"uint256"}],"stateMutability":"view"},{"type":"function","name":"currentTokenId","inputs":[],"outputs":[{"name":"","type":"uint256","internalType":"uint256"}],"stateMutability":"view"},{"type":"function","name":"getApproved","inputs":[{"name":"tokenId","type":"uint256","internalType":"uint256"}],"outputs":[{"name":"","type":"address","internalType":"address"}],"stateMutability":"view"},{"type":"function","name":"isApprovedForAll","inputs":[{"name":"owner","type":"address","internalType":"address"},{"name":"operator","type":"address","internalType":"address"}],"outputs":[{"name":"","type":"bool","internalType":"bool"}],"stateMutability":"view"},{"type":"function","name":"name","inputs":[],"outputs":[{"name":"","type":"string","internalType":"string"}],"stateMutability":"view"},{"type":"function","name":"ownerOf","inputs":[{"name":"tokenId","type":"uint256","internalType":"uint256"}],"outputs":[{"name":"","type":"address","internalType":"address"}],"stateMutability":"view"},{"type":"function","name":"prover","inputs":[],"outputs":[{"name":"","type":"address","internalType":"address"}],"stateMutability":"view"},{"type":"function","name":"safeTransferFrom","inputs":[{"name":"from","type":"address","internalType":"address"},{"name":"to","type":"address","internalType":"address"},{"name":"tokenId","type":"uint256","internalType":"uint256"}],"outputs":[],"stateMutability":"nonpayable"},{"type":"function","name":"safeTransferFrom","inputs":[{"name":"from","type":"address","internalType":"address"},{"name":"to","type":"address","internalType":"address"},{"name":"tokenId","type":"uint256","internalType":"uint256"},{"name":"data","type":"bytes","internalType":"bytes"}],"outputs":[],"stateMutability":"nonpayable"},{"type":"function","name":"setApprovalForAll","inputs":[{"name":"operator","type":"address","internalType":"address"},{"name":"approved","type":"bool","internalType":"bool"}],"outputs":[],"stateMutability":"nonpayable"},{"type":"function","name":"supportsInterface","inputs":[{"name":"interfaceId","type":"bytes4","internalType":"bytes4"}],"outputs":[{"name":"","type":"bool","internalType":"bool"}],"stateMutability":"view"},{"type":"function","name":"symbol","inputs":[],"outputs":[{"name":"","type":"string","internalType":"string"}],"stateMutability":"view"},{"type":"function","name":"takenEmailHashes","inputs":[{"name":"","type":"bytes32","internalType":"bytes32"}],"outputs":[{"name":"","type":"bool","internalType":"bool"}],"stateMutability":"view"},{"type":"function","name":"tokenIdToMetadataUri","inputs":[{"name":"","type":"uint256","internalType":"uint256"}],"outputs":[{"name":"","type":"string","internalType":"string"}],"stateMutability":"view"},{"type":"function","name":"tokenURI","inputs":[{"name":"tokenId","type":"uint256","internalType":"uint256"}],"outputs":[{"name":"","type":"string","internalType":"string"}],"stateMutability":"view"},{"type":"function","name":"transferFrom","inputs":[{"name":"from","type":"address","internalType":"address"},{"name":"to","type":"address","internalType":"address"},{"name":"tokenId","type":"uint256","internalType":"uint256"}],"outputs":[],"stateMutability":"nonpayable"},{"type":"function","name":"verifier","inputs":[],"outputs":[{"name":"","type":"address","internalType":"contract IProofVerifier"}],"stateMutability":"view"},{"type":"function","name":"verify","inputs":[{"name":"","type":"tuple","internalType":"struct Proof","components":[{"name":"seal","type":"tuple","internalType":"struct Seal","components":[{"name":"verifierSelector","type":"bytes4","internalType":"bytes4"},{"name":"seal","type":"bytes32[8]","internalType":"bytes32[8]"},{"name":"mode","type":"uint8","internalType":"enum ProofMode"}]},{"name":"callGuestId","type":"bytes32","internalType":"bytes32"},{"name":"length","type":"uint256","internalType":"uint256"},{"name":"callAssumptions","type":"tuple","internalType":"struct CallAssumptions","components":[{"name":"proverContractAddress","type":"address","internalType":"address"},{"name":"functionSelector","type":"bytes4","internalType":"bytes4"},{"name":"settleChainId","type":"uint256","internalType":"uint256"},{"name":"settleBlockNumber","type":"uint256","internalType":"uint256"},{"name":"settleBlockHash","type":"bytes32","internalType":"bytes32"}]}]},{"name":"_emailHash","type":"bytes32","internalType":"bytes32"},{"name":"_targetWallet","type":"address","internalType":"address"},{"name":"_emailDomain","type":"string","internalType":"string"}],"outputs":[],"stateMutability":"nonpayable"},{"type":"event","name":"Approval","inputs":[{"name":"owner","type":"address","indexed":true,"internalType":"address"},{"name":"approved","type":"address","indexed":true,"internalType":"address"},{"name":"tokenId","type":"uint256","indexed":true,"internalType":"uint256"}],"anonymous":false},{"type":"event","name":"ApprovalForAll","inputs":[{"name":"owner","type":"address","indexed":true,"internalType":"address"},{"name":"operator","type":"address","indexed":true,"internalType":"address"},{"name":"approved","type":"bool","indexed":false,"internalType":"bool"}],"anonymous":false},{"type":"event","name":"Transfer","inputs":[{"name":"from","type":"address","indexed":true,"internalType":"address"},{"name":"to","type":"address","indexed":true,"internalType":"address"},{"name":"tokenId","type":"uint256","indexed":true,"internalType":"uint256"}],"anonymous":false},{"type":"error","name":"ERC721IncorrectOwner","inputs":[{"name":"sender","type":"address","internalType":"address"},{"name":"tokenId","type":"uint256","internalType":"uint256"},{"name":"owner","type":"address","internalType":"address"}]},{"type":"error","name":"ERC721InsufficientApproval","inputs":[{"name":"operator","type":"address","internalType":"address"},{"name":"tokenId","type":"uint256","internalType":"uint256"}]},{"type":"error","name":"ERC721InvalidApprover","inputs":[{"name":"approver","type":"address","internalType":"address"}]},{"type":"error","name":"ERC721InvalidOperator","inputs":[{"name":"operator","type":"address","internalType":"address"}]},{"type":"error","name":"ERC721InvalidOwner","inputs":[{"name":"owner","type":"address","internalType":"address"}]},{"type":"error","name":"ERC721InvalidReceiver","inputs":[{"name":"receiver","type":"address","internalType":"address"}]},{"type":"error","name":"ERC721InvalidSender","inputs":[{"name":"sender","type":"address","internalType":"address"}]},{"type":"error","name":"ERC721NonexistentToken","inputs":[{"name":"tokenId","type":"uint256","internalType":"uint256"}]},{"type":"error","name":"InvalidChainId","inputs":[]}],"bytecode":{"object":"0x60a06040523480156200001157600080fd5b5060405162004b6d38038062004b6d83398101604081905262000034916200047d565b60405180604001604052806008815260200167115b585a5b13919560c21b8152506040518060400160405280600381526020016211535360ea1b81525062000081620000ec60201b60201c565b600080546001600160a01b0319166001600160a01b0392909216919091179055336080526001620000b3838262000556565b506002620000c2828262000556565b5050600780546001600160a01b0319166001600160a01b039390931692909217909155506200067c565b6000620000f8620002a2565b15620002065760003030604051620001109062000461565b6001600160a01b03928316815291166020820152604001604051809103906000f08015801562000144573d6000803e3d6000fd5b506040516384cf84e160e01b81527fdcb00648ecc90d8bfe92aa8d51061beb0bcb110d274fc4a517e526574233d36b60048201529091506001600160a01b038216906384cf84e190602401600060405180830381600087803b158015620001aa57600080fd5b505af1158015620001bf573d6000803e3d6000fd5b5050505080604051620001d2906200046f565b6001600160a01b039091168152602001604051809103906000f080158015620001ff573d6000803e3d6000fd5b5091505090565b62000210620002c4565b156200022f5750735553cf6ce25e3f80fad2866f6230346159ecd89c90565b6200023962000333565b1562000289576000739e30dc3e49c4d47f982902710616dcc4b6ff7bf5737e231cfc3e3b549633d5ad61c30f07dd4d408ad3738972b6ff413ac04e61e19f07d7f3bd980d0cc3215b949350505050565b604051633d23e4d160e11b815260040160405180910390fd5b6000620002ae6200039d565b80620002bf5750620002bf620003b5565b905090565b60004660011480620002d6575046600a145b80620002e25750466089145b80620002ef575046610144145b80620002fc5750466101e0145b8062000309575046612105145b806200031657504661a4b1145b806200032357504661a4ba145b80620002bf57505061e708461490565b60004662aa36a714806200034857504661012c145b80620003555750466112c1145b806200036257504661e705145b806200037057504662013882145b806200037e57504662014a34145b806200038c57504662066eee145b80620002bf57505062aa37dc461490565b600046617a691480620002bf57505062049919461490565b60008080620003da73f4e4fdca9d5d55e64525e314391996a15f7ec600601e62000622565b6001600160a01b0316604051600060405180830381855afa9150503d806000811462000423576040519150601f19603f3d011682016040523d82523d6000602084013e62000428565b606091505b50915091508115806200043a57508051155b15620004495760009250505090565b60008180602001905181019062000281919062000658565b6111c680620024c983390190565b6114de806200368f83390190565b6000602082840312156200049057600080fd5b81516001600160a01b0381168114620004a857600080fd5b9392505050565b634e487b7160e01b600052604160045260246000fd5b600181811c90821680620004da57607f821691505b602082108103620004fb57634e487b7160e01b600052602260045260246000fd5b50919050565b601f82111562000551576000816000526020600020601f850160051c810160208610156200052c5750805b601f850160051c820191505b818110156200054d5782815560010162000538565b5050505b505050565b81516001600160401b03811115620005725762000572620004af565b6200058a81620005838454620004c5565b8462000501565b602080601f831160018114620005c25760008415620005a95750858301515b600019600386901b1c1916600185901b1785556200054d565b600085815260208120601f198616915b82811015620005f357888601518255948401946001909101908401620005d2565b5085821015620006125787850151600019600388901b60f8161c191681555b5050505050600190811b01905550565b6001600160a01b038181168382160190808211156200065157634e487b7160e01b600052601160045260246000fd5b5092915050565b6000602082840312156200066b57600080fd5b81518015158114620004a857600080fd5b608051611e316200069860003960006106040152611e316000f3fe608060405234801561001057600080fd5b506004361061012b5760003560e01c80636352211e116100ad578063a22cb46511610071578063a22cb46514610287578063b88d4fde1461029a578063c87b56dd146102ad578063e985e9c5146102c0578063e9997c52146102d357600080fd5b80636352211e1461023357806370a082311461024657806395d89b4114610259578063977aa54b146102615780639b8b30c81461027457600080fd5b806323b872dd116100f457806323b872dd146101c45780632b7ac3f3146101d757806332a8f30f146101ea57806342842e0e146101fd5780635889d3ea1461021057600080fd5b80629a9b7b1461013057806301ffc9a71461014c57806306fdde031461016f578063081812fc14610184578063095ea7b3146101af575b600080fd5b61013960085481565b6040519081526020015b60405180910390f35b61015f61015a3660046114ae565b6102e6565b6040519015158152602001610143565b610177610338565b6040516101439190611522565b610197610192366004611535565b6103ca565b6040516001600160a01b039091168152602001610143565b6101c26101bd366004611563565b6103f3565b005b6101c26101d236600461158f565b610402565b600054610197906001600160a01b031681565b600754610197906001600160a01b031681565b6101c261020b36600461158f565b610492565b61015f61021e366004611535565b60096020526000908152604090205460ff1681565b610197610241366004611535565b6104b2565b6101396102543660046115d0565b6104bd565b610177610505565b6101c261026f3660046116e9565b610514565b6101c26102823660046115d0565b6105f9565b6101c2610295366004611780565b6107f9565b6101c26102a83660046117b9565b610804565b6101776102bb366004611535565b61081b565b61015f6102ce36600461180d565b6108bd565b6101776102e1366004611535565b6108eb565b60006001600160e01b031982166380ac58cd60e01b148061031757506001600160e01b03198216635b5e139f60e01b145b8061033257506301ffc9a760e01b6001600160e01b03198316145b92915050565b6060600180546103479061183b565b80601f01602080910402602001604051908101604052809291908181526020018280546103739061183b565b80156103c05780601f10610395576101008083540402835291602001916103c0565b820191906000526020600020905b8154815290600101906020018083116103a357829003601f168201915b5050505050905090565b60006103d582610985565b506000828152600560205260409020546001600160a01b0316610332565b6103fe8282336109be565b5050565b6001600160a01b03821661043157604051633250574960e11b8152600060048201526024015b60405180910390fd5b600061043e8383336109cb565b9050836001600160a01b0316816001600160a01b03161461048c576040516364283d7b60e01b81526001600160a01b0380861660048301526024820184905282166044820152606401610428565b50505050565b6104ad83838360405180602001604052806000815250610804565b505050565b600061033282610985565b60006001600160a01b0382166104e9576040516322718ad960e21b815260006004820152602401610428565b506001600160a01b031660009081526004602052604090205490565b6060600280546103479061183b565b6007546001600160a01b031663ac6981e560e01b6105328282610ac4565b60008581526009602052604090205460ff161561057f5760405162461bcd60e51b815260206004820152600b60248201526a32b6b0b4b6103a30b5b2b760a91b6044820152606401610428565b6000858152600960205260408120805460ff191660019081179091556008546105a79161188b565b9050836040516020016105ba919061189e565b60408051601f198184030181529181526000838152600a60205220906105e0908261194c565b5060088190556105f08582610b3f565b50505050505050565b336001600160a01b037f0000000000000000000000000000000000000000000000000000000000000000161461067b5760405162461bcd60e51b815260206004820152602160248201527f4f6e6c79206465706c6f7965722063616e206368616e676520766572696669656044820152603960f91b6064820152608401610428565b610683610b59565b806106915750610691610b76565b6107035760405162461bcd60e51b815260206004820152603760248201527f4368616e67696e6720766572696669657273206973206f6e6c7920616c6c6f7760448201527f6564206f6e206465766e6574206f7220746573746e65740000000000000000006064820152608401610428565b60006001600160a01b0316816001600160a01b0316633fd66f226040518163ffffffff1660e01b8152600401602060405180830381865afa15801561074c573d6000803e3d6000fd5b505050506040513d601f19601f820116820180604052508101906107709190611a0c565b6001600160a01b0316036107d75760405162461bcd60e51b815260206004820152602860248201527f56657269666965722773207265706f7369746f72792061646472657373206973604482015267081b9bdd081cd95d60c21b6064820152608401610428565b600080546001600160a01b0319166001600160a01b0392909216919091179055565b6103fe338383610bd9565b61080f848484610402565b61048c84848484610c78565b6000818152600a602052604090208054606091906108389061183b565b80601f01602080910402602001604051908101604052809291908181526020018280546108649061183b565b80156108b15780601f10610886576101008083540402835291602001916108b1565b820191906000526020600020905b81548152906001019060200180831161089457829003601f168201915b50505050509050919050565b6001600160a01b03918216600090815260066020908152604080832093909416825291909152205460ff1690565b600a60205260009081526040902080546109049061183b565b80601f01602080910402602001604051908101604052809291908181526020018280546109309061183b565b801561097d5780601f106109525761010080835404028352916020019161097d565b820191906000526020600020905b81548152906001019060200180831161096057829003601f168201915b505050505081565b6000818152600360205260408120546001600160a01b03168061033257604051637e27328960e01b815260048101849052602401610428565b6104ad8383836001610da1565b6000828152600360205260408120546001600160a01b03908116908316156109f8576109f8818486610ea7565b6001600160a01b03811615610a3657610a15600085600080610da1565b6001600160a01b038116600090815260046020526040902080546000190190555b6001600160a01b03851615610a65576001600160a01b0385166000908152600460205260409020805460010190555b60008481526003602052604080822080546001600160a01b0319166001600160a01b0389811691821790925591518793918516917fddf252ad1be2c89b69c2b068fc378daa952ba7f163c4a11628f55a4df523b3ef91a4949350505050565b600080610acf610f0b565b60005460405163c4fa74e560e01b81529294509092506001600160a01b03169063c4fa74e590610b09908590859089908990600401611af1565b60006040518083038186803b158015610b2157600080fd5b505afa158015610b35573d6000803e3d6000fd5b5050505050505050565b6103fe828260405180602001604052806000815250611245565b6000610b6361125c565b80610b715750610b71611273565b905090565b60004662aa36a71480610b8a57504661012c145b80610b965750466112c1145b80610ba257504661e705145b80610baf57504662013882145b80610bbc57504662014a34145b80610bc957504662066eee145b80610b7157505062aa37dc461490565b6001600160a01b038216610c0b57604051630b61174360e31b81526001600160a01b0383166004820152602401610428565b6001600160a01b03838116600081815260066020908152604080832094871680845294825291829020805460ff191686151590811790915591519182527f17307eab39ab6107e8899845ad3d59bd9653f200f220920489ca2b5937696c31910160405180910390a3505050565b6001600160a01b0383163b1561048c57604051630a85bd0160e11b81526001600160a01b0384169063150b7a0290610cba903390889087908790600401611b31565b6020604051808303816000875af1925050508015610cf5575060408051601f3d908101601f19168201909252610cf291810190611b6e565b60015b610d5e573d808015610d23576040519150601f19603f3d011682016040523d82523d6000602084013e610d28565b606091505b508051600003610d5657604051633250574960e11b81526001600160a01b0385166004820152602401610428565b805181602001fd5b6001600160e01b03198116630a85bd0160e11b14610d9a57604051633250574960e11b81526001600160a01b0385166004820152602401610428565b5050505050565b8080610db557506001600160a01b03821615155b15610e77576000610dc584610985565b90506001600160a01b03831615801590610df15750826001600160a01b0316816001600160a01b031614155b8015610e045750610e0281846108bd565b155b15610e2d5760405163a9fbf51f60e01b81526001600160a01b0384166004820152602401610428565b8115610e755783856001600160a01b0316826001600160a01b03167f8c5be1e5ebec7d5bd14f71427d1e84f3dd0314c0f7b2291e5b200ac8c7c3b92560405160405180910390a45b505b5050600090815260056020526040902080546001600160a01b0319166001600160a01b0392909216919091179055565b610eb283838361131f565b6104ad576001600160a01b038316610ee057604051637e27328960e01b815260048101829052602401610428565b60405163177e802f60e01b81526001600160a01b038316600482015260248101829052604401610428565b610f136113fc565b600080610f233660048184611b8b565b810190610f309190611c46565b9050600060208080610f42818061188b565b610f4c919061188b565b610f56919061188b565b610f60919061188b565b60208080610f706101008261188b565b610f7a919061188b565b610f84919061188b565b610f8e919061188b565b610f9990600461188b565b610fa3919061188b565b9050600060208080610fb5818061188b565b610fbf919061188b565b610fc9919061188b565b610fd3919061188b565b60208080610fe1818061188b565b610feb919061188b565b610ff5919061188b565b610fff919061188b565b6020808061100f6101008261188b565b611019919061188b565b611023919061188b565b61102d919061188b565b611037919061188b565b84604001516110469190611d1d565b6110509190611d1d565b9050600061105e828461188b565b905060008036602080806110746101008261188b565b61107e919061188b565b611088919061188b565b611092919061188b565b61109d90600461188b565b90602080806110ac818061188b565b6110b6919061188b565b6110c0919061188b565b6110ca919061188b565b602080806110da6101008261188b565b6110e4919061188b565b6110ee919061188b565b6110f8919061188b565b61110390600461188b565b61110d919061188b565b9261111a93929190611b8b565b8080601f016020809104026020016040519081016040528093929190818152602001838380828437600092018290525093945061115f92508591508790503684611b8b565b8080601f01602080910402602001604051908101604052809392919081815260200183838082843760009201829052509394508592506111a191506113829050565b6040516020016111b19190611d30565b60408051601f19818403018152908290526111d192918590602001611d3f565b604051602081830303815290604052905060006002826040516111f49190611d82565b602060405180830381855afa158015611211573d6000803e3d6000fd5b5050506040513d601f19601f820116820180604052508101906112349190611d9e565b979a97995096975050505050505050565b61124f8383611397565b6104ad6000848484610c78565b600046617a691480610b7157505062049919461490565b6000808061129673f4e4fdca9d5d55e64525e314391996a15f7ec600601e611db7565b6001600160a01b0316604051600060405180830381855afa9150503d80600081146112dd576040519150601f19603f3d011682016040523d82523d6000602084013e6112e2565b606091505b50915091508115806112f357508051155b156113015760009250505090565b6000818060200190518101906113179190611dde565b949350505050565b60006001600160a01b038316158015906113175750826001600160a01b0316846001600160a01b03161480611359575061135984846108bd565b806113175750506000908152600560205260409020546001600160a01b03908116911614919050565b61138a6113fc565b6113926113fc565b919050565b6001600160a01b0382166113c157604051633250574960e11b815260006004820152602401610428565b60006113cf838360006109cb565b90506001600160a01b038116156104ad576040516339e3563760e11b815260006004820152602401610428565b604051806080016040528061140f61144f565b8152600060208083018290526040808401839052805160a08101825283815291820183905281018290526060818101839052608082019290925291015290565b6040805160608101909152600081526020810161146a611476565b81526020016000905290565b6040518061010001604052806008906020820280368337509192915050565b6001600160e01b0319811681146114ab57600080fd5b50565b6000602082840312156114c057600080fd5b81356114cb81611495565b9392505050565b60005b838110156114ed5781810151838201526020016114d5565b50506000910152565b6000815180845261150e8160208601602086016114d2565b601f01601f19169290920160200192915050565b6020815260006114cb60208301846114f6565b60006020828403121561154757600080fd5b5035919050565b6001600160a01b03811681146114ab57600080fd5b6000806040838503121561157657600080fd5b82356115818161154e565b946020939093013593505050565b6000806000606084860312156115a457600080fd5b83356115af8161154e565b925060208401356115bf8161154e565b929592945050506040919091013590565b6000602082840312156115e257600080fd5b81356114cb8161154e565b634e487b7160e01b600052604160045260246000fd5b6040516080810167ffffffffffffffff81118282101715611626576116266115ed565b60405290565b6040516060810167ffffffffffffffff81118282101715611626576116266115ed565b604051610100810167ffffffffffffffff81118282101715611626576116266115ed565b600067ffffffffffffffff8084111561168e5761168e6115ed565b604051601f8501601f19908116603f011681019082821181831017156116b6576116b66115ed565b816040528093508581528686860111156116cf57600080fd5b858560208301376000602087830101525050509392505050565b60008060008084860361028081121561170157600080fd5b6102208082121561171157600080fd5b8695508501359350506102408401356117298161154e565b915061026085013567ffffffffffffffff81111561174657600080fd5b8501601f8101871361175757600080fd5b61176687823560208401611673565b91505092959194509250565b80151581146114ab57600080fd5b6000806040838503121561179357600080fd5b823561179e8161154e565b915060208301356117ae81611772565b809150509250929050565b600080600080608085870312156117cf57600080fd5b84356117da8161154e565b935060208501356117ea8161154e565b925060408501359150606085013567ffffffffffffffff81111561174657600080fd5b6000806040838503121561182057600080fd5b823561182b8161154e565b915060208301356117ae8161154e565b600181811c9082168061184f57607f821691505b60208210810361186f57634e487b7160e01b600052602260045260246000fd5b50919050565b634e487b7160e01b600052601160045260246000fd5b8082018082111561033257610332611875565b7f68747470733a2f2f6661756365742e766c617965722e78797a2f6170692f784281526f616467654d6574613f68616e646c653d60801b6020820152600082516118ef8160308501602087016114d2565b9190910160300192915050565b601f8211156104ad576000816000526020600020601f850160051c810160208610156119255750805b601f850160051c820191505b8181101561194457828155600101611931565b505050505050565b815167ffffffffffffffff811115611966576119666115ed565b61197a81611974845461183b565b846118fc565b602080601f8311600181146119af57600084156119975750858301515b600019600386901b1c1916600185901b178555611944565b600085815260208120601f198616915b828110156119de578886015182559484019460019091019084016119bf565b50858210156119fc5787850151600019600388901b60f8161c191681555b5050505050600190811b01905550565b600060208284031215611a1e57600080fd5b81516114cb8161154e565b805180516001600160e01b031916835260208082015181850160005b6008811015611a6257825182529183019190830190600101611a45565b505050506040015160028110611a8857634e487b7160e01b600052602160045260246000fd5b61012083015260208181015161014084015260408083015161016085015260609283015180516001600160a01b0316610180860152918201516001600160e01b0319166101a08501528101516101c0840152908101516101e08301526080015161020090910152565b6102808101611b008287611a29565b6102208201949094526001600160a01b03929092166102408301526001600160e01b03191661026090910152919050565b6001600160a01b0385811682528416602082015260408101839052608060608201819052600090611b64908301846114f6565b9695505050505050565b600060208284031215611b8057600080fd5b81516114cb81611495565b60008085851115611b9b57600080fd5b83861115611ba857600080fd5b5050820193919092039150565b80356002811061139257600080fd5b600060a08284031215611bd657600080fd5b60405160a0810181811067ffffffffffffffff82111715611bf957611bf96115ed565b6040529050808235611c0a8161154e565b81526020830135611c1a81611495565b806020830152506040830135604082015260608301356060820152608083013560808201525092915050565b6000818303610220811215611c5a57600080fd5b611c62611603565b61014080831215611c7257600080fd5b611c7a61162c565b92508435611c8781611495565b83526020603f86018713611c9a57600080fd5b611ca261164f565b80610120880189811115611cb557600080fd5b602089015b81811015611cd15780358452928401928401611cba565b50816020880152611ce181611bb5565b604088015250505050828252808501356020830152506101608401356040820152611d10856101808601611bc4565b6060820152949350505050565b8181038181111561033257610332611875565b61022081016103328284611a29565b60008451611d518184602089016114d2565b845190830190611d658183602089016114d2565b8451910190611d788183602088016114d2565b0195945050505050565b60008251611d948184602087016114d2565b9190910192915050565b600060208284031215611db057600080fd5b5051919050565b6001600160a01b03818116838216019080821115611dd757611dd7611875565b5092915050565b600060208284031215611df057600080fd5b81516114cb8161177256fea26469706673582212203775a93ab709d4232a5b8251245e7db976b5cc6ed517130d479d1dc27e56a27764736f6c6343000818003360806040523480156200001157600080fd5b50604051620011c6380380620011c68339810160408190526200003491620001d9565b6200004160008362000077565b506200006e7fb19546dff01e856fb3f010c267a7b1c60363cf8a4664e21cc89c26224620214e8262000077565b50505062000211565b600080620000868484620000b4565b90508015620000ab576000848152600160205260409020620000a9908462000162565b505b90505b92915050565b6000828152602081815260408083206001600160a01b038516845290915281205460ff1662000159576000838152602081815260408083206001600160a01b03861684529091529020805460ff19166001179055620001103390565b6001600160a01b0316826001600160a01b0316847f2f8788117e7eff1d82e926ec794901d17c78024a50270940304540a733656f0d60405160405180910390a4506001620000ae565b506000620000ae565b6000620000ab836001600160a01b03841660008181526001830160205260408120546200015957508154600181810184556000848152602080822090930184905584548482528286019093526040902091909155620000ae565b80516001600160a01b0381168114620001d457600080fd5b919050565b60008060408385031215620001ed57600080fd5b620001f883620001bc565b91506200020860208401620001bc565b90509250929050565b610fa580620002216000396000f3fe608060405234801561001057600080fd5b50600436106101375760003560e01c8063853b5d19116100b8578063c5df91b51161007c578063c5df91b5146102db578063ca0d5358146102ee578063ca15c87314610301578063d547741f14610314578063e58378bb14610327578063f2fde38b1461033c57600080fd5b8063853b5d191461026f5780639010d07c1461028257806391d14854146102ad578063a217fddf146102c0578063ada8f919146102c857600080fd5b80632f2ff15d116100ff5780632f2ff15d146101f857806336568abe1461020b578063755e936f1461021e57806381e4c9a31461023157806384cf84e11461025c57600080fd5b806301ffc9a71461013c5780631af6c43114610164578063248a9ca3146101875780632505a3bd146101b85780632ad82eea146101e3575b600080fd5b61014f61014a366004610d04565b61034f565b60405190151581526020015b60405180910390f35b61014f610172366004610d2e565b60009081526003602052604090205460ff1690565b6101aa610195366004610d2e565b60009081526020819052604090206001015490565b60405190815260200161015b565b61014f6101c6366004610dd3565b805160209182012060009081526004909152604090205460ff1690565b6101f66101f1366004610dd3565b61037a565b005b6101f6610206366004610e40565b610451565b6101f6610219366004610e40565b61047c565b6101f661022c366004610dd3565b6104b4565b61014f61023f366004610dd3565b805160209182012060009081526002909152604090205460ff1690565b6101f661026a366004610d2e565b61057a565b6101f661027d366004610dd3565b610648565b610295610290366004610e6c565b61070d565b6040516001600160a01b03909116815260200161015b565b61014f6102bb366004610e40565b61072c565b6101aa600081565b6101f66102d6366004610e8e565b610755565b6101f66102e9366004610d2e565b61076e565b6101f66102fc366004610dd3565b610836565b6101aa61030f366004610d2e565b6108fc565b6101f6610322366004610e40565b610913565b6101aa600080516020610f5083398151915281565b6101f661034a366004610e8e565b610938565b60006001600160e01b03198216635a05180f60e01b1480610374575061037482610989565b92915050565b600080516020610f50833981519152610392816109be565b81516020808401919091206000818152600490925260409091205460ff16156103f95760405162461bcd60e51b815260206004820152601460248201527312d95e481a5cc8185b1c9958591e481d985b1a5960621b60448201526064015b60405180910390fd5b60008181526004602052604090819020805460ff191660011790555133907fcbfa55581c230aeb174d969838d927cdd297755dfb967a33134312f1377ee71d90610444908690610eef565b60405180910390a2505050565b60008281526020819052604090206001015461046c816109be565b61047683836109c8565b50505050565b6001600160a01b03811633146104a55760405163334bd91960e11b815260040160405180910390fd5b6104af82826109fd565b505050565b600080516020610f508339815191526104cc816109be565b81516020808401919091206000818152600290925260409091205460ff166105325760405162461bcd60e51b815260206004820152601960248201527843616e6e6f74207265766f6b6520696e76616c6964206b657960381b60448201526064016103f0565b60008181526002602052604090819020805460ff191690555133907f66e43f8252a3257fe010a4fd6ae50f57624762cc64a6eceadb04b18cfdefac7d90610444908690610eef565b600080516020610f50833981519152610592816109be565b60008281526003602052604090205460ff16156105f15760405162461bcd60e51b815260206004820152601c60248201527f496d616765494420697320616c726561647920737570706f727465640000000060448201526064016103f0565b60008281526003602052604090819020805460ff19166001179055517f010120d82c0c66b257c0ea628d405b1d3c2d37bb8dd9141f6c5c12cb0375c5729061063c9084815260200190565b60405180910390a15050565b600080516020610f50833981519152610660816109be565b81516020808401919091206000818152600290925260409091205460ff16156106c25760405162461bcd60e51b815260206004820152601460248201527312d95e481a5cc8185b1c9958591e481d985b1a5960621b60448201526064016103f0565b60008181526002602052604090819020805460ff191660011790555133907f0a249d4766726d36cb6d6ac22cf998dc9fc02bb4ff9fda73ec1e3061c8a1db0990610444908690610eef565b60008281526001602052604081206107259083610a2a565b9392505050565b6000918252602082815260408084206001600160a01b0393909316845291905290205460ff1690565b610760600082610451565b61076b60003361047c565b50565b600080516020610f50833981519152610786816109be565b60008281526003602052604090205460ff166107ee5760405162461bcd60e51b815260206004820152602160248201527f43616e6e6f74207265766f6b6520756e737570706f7274656420496d616765496044820152601160fa1b60648201526084016103f0565b60008281526003602052604090819020805460ff19169055517f4072861add20da436ef0a8274b90d102aea17b603f972cc8196d51f1a5d561799061063c9084815260200190565b600080516020610f5083398151915261084e816109be565b81516020808401919091206000818152600490925260409091205460ff166108b45760405162461bcd60e51b815260206004820152601960248201527843616e6e6f74207265766f6b6520696e76616c6964206b657960381b60448201526064016103f0565b60008181526004602052604090819020805460ff191690555133907f69c40cdda8ad6e074bf320a4a76804a6652eb5231bda91b690dcb98010b2707990610444908690610eef565b600081815260016020526040812061037490610a36565b60008281526020819052604090206001015461092e816109be565b61047683836109fd565b6000610953600080516020610f50833981519152600061070d565b905061096d600080516020610f5083398151915282610913565b610985600080516020610f5083398151915283610451565b5050565b60006001600160e01b03198216637965db0b60e01b148061037457506301ffc9a760e01b6001600160e01b0319831614610374565b61076b8133610a40565b6000806109d58484610a79565b905080156107255760008481526001602052604090206109f59084610b0b565b509392505050565b600080610a0a8484610b20565b905080156107255760008481526001602052604090206109f59084610b8b565b60006107258383610ba0565b6000610374825490565b610a4a828261072c565b6109855760405163e2517d3f60e01b81526001600160a01b0382166004820152602481018390526044016103f0565b6000610a85838361072c565b610b03576000838152602081815260408083206001600160a01b03861684529091529020805460ff19166001179055610abb3390565b6001600160a01b0316826001600160a01b0316847f2f8788117e7eff1d82e926ec794901d17c78024a50270940304540a733656f0d60405160405180910390a4506001610374565b506000610374565b6000610725836001600160a01b038416610bca565b6000610b2c838361072c565b15610b03576000838152602081815260408083206001600160a01b0386168085529252808320805460ff1916905551339286917ff6391f5c32d9c69d2a47ea670b442974b53935d1edc7fd64eb21e047a839171b9190a4506001610374565b6000610725836001600160a01b038416610c11565b6000826000018281548110610bb757610bb7610f02565b9060005260206000200154905092915050565b6000818152600183016020526040812054610b0357508154600181810184556000848152602080822090930184905584548482528286019093526040902091909155610374565b60008181526001830160205260408120548015610cfa576000610c35600183610f18565b8554909150600090610c4990600190610f18565b9050808214610cae576000866000018281548110610c6957610c69610f02565b9060005260206000200154905080876000018481548110610c8c57610c8c610f02565b6000918252602080832090910192909255918252600188019052604090208390555b8554869080610cbf57610cbf610f39565b600190038181906000526020600020016000905590558560010160008681526020019081526020016000206000905560019350505050610374565b6000915050610374565b600060208284031215610d1657600080fd5b81356001600160e01b03198116811461072557600080fd5b600060208284031215610d4057600080fd5b5035919050565b634e487b7160e01b600052604160045260246000fd5b600067ffffffffffffffff80841115610d7857610d78610d47565b604051601f8501601f19908116603f01168101908282118183101715610da057610da0610d47565b81604052809350858152868686011115610db957600080fd5b858560208301376000602087830101525050509392505050565b600060208284031215610de557600080fd5b813567ffffffffffffffff811115610dfc57600080fd5b8201601f81018413610e0d57600080fd5b610e1c84823560208401610d5d565b949350505050565b80356001600160a01b0381168114610e3b57600080fd5b919050565b60008060408385031215610e5357600080fd5b82359150610e6360208401610e24565b90509250929050565b60008060408385031215610e7f57600080fd5b50508035926020909101359150565b600060208284031215610ea057600080fd5b61072582610e24565b6000815180845260005b81811015610ecf57602081850181015186830182015201610eb3565b506000602082860101526020601f19601f83011685010191505092915050565b6020815260006107256020830184610ea9565b634e487b7160e01b600052603260045260246000fd5b8181038181111561037457634e487b7160e01b600052601160045260246000fd5b634e487b7160e01b600052603160045260246000fdfeb19546dff01e856fb3f010c267a7b1c60363cf8a4664e21cc89c26224620214ea26469706673582212209e10b39251df47517f41b0a4d98c4f818006f0be9bd26c99cdbd7e2db17f83bd64736f6c6343000818003360e060405234801561001057600080fd5b506040516114de3803806114de83398101604081905261002f91610132565b6001600160a01b03811660c0526100446100bc565b1561006257604051633d23e4d160e11b815260040160405180910390fd5b60405163deafbeef60e01b9061007790610125565b6001600160e01b03199091168152602001604051809103906000f0801580156100a4573d6000803e3d6000fd5b506001600160a01b031660a052506001608052610162565b600046600114806100cd575046600a145b806100d85750466089145b806100e4575046610144145b806100f05750466101e0145b806100fc575046612105145b8061010857504661a4b1145b8061011457504661a4ba145b8061012057504661e708145b905090565b61090480610bda83390190565b60006020828403121561014457600080fd5b81516001600160a01b038116811461015b57600080fd5b9392505050565b60805160a05160c051610a306101aa6000396000818160a20152818161011401526104e50152600081816061015261017001526000818160cb01526102090152610a306000f3fe608060405234801561001057600080fd5b50600436106100575760003560e01c806308c84e701461005c5780633fd66f22146100a05780639a44ea84146100c6578063c4fa74e5146100fa578063f4cbae941461010f575b600080fd5b6100837f000000000000000000000000000000000000000000000000000000000000000081565b6040516001600160a01b0390911681526020015b60405180910390f35b7f0000000000000000000000000000000000000000000000000000000000000000610083565b6100ed7f000000000000000000000000000000000000000000000000000000000000000081565b604051610097919061064b565b61010d6101083660046106a2565b610136565b005b6100837f000000000000000000000000000000000000000000000000000000000000000081565b61014d6101483686900386018661083f565b610207565b61016661015f3686900386018661083f565b838361029a565b6001600160a01b037f00000000000000000000000000000000000000000000000000000000000000001663ab750e756101ac6101a7368890038801886108eb565b6105a9565b866101400135866040518463ffffffff1660e01b81526004016101d19392919061090f565b60006040518083038186803b1580156101e957600080fd5b505afa1580156101fd573d6000803e3d6000fd5b5050505050505050565b7f0000000000000000000000000000000000000000000000000000000000000000600181111561023957610239610635565b815160400151600181111561025057610250610635565b146102975760405162461bcd60e51b8152602060048201526012602482015271496e76616c69642070726f6f66206d6f646560701b60448201526064015b60405180910390fd5b50565b816001600160a01b03168360600151600001516001600160a01b0316146102f45760405162461bcd60e51b815260206004820152600e60248201526d24b73b30b634b210383937bb32b960911b604482015260640161028e565b806001600160e01b0319168360600151602001516001600160e01b031916146103525760405162461bcd60e51b815260206004820152601060248201526f24b73b30b634b21039b2b632b1ba37b960811b604482015260640161028e565b468360600151604001511461039c5760405162461bcd60e51b815260206004820152601060248201526f125b9d985b1a590818da185a5b881a5960821b604482015260640161028e565b43836060015160600151106104035760405162461bcd60e51b815260206004820152602760248201527f496e76616c696420626c6f636b206e756d6265723a20626c6f636b2066726f6d6044820152662066757475726560c81b606482015260840161028e565b4361010084606001516060015161041a919061096b565b10156104745760405162461bcd60e51b815260206004820152602360248201527f496e76616c696420626c6f636b206e756d6265723a20626c6f636b20746f6f206044820152621bdb1960ea1b606482015260840161028e565b82606001516060015140836060015160800151146104c95760405162461bcd60e51b8152602060048201526012602482015271092dcecc2d8d2c840c4d8dec6d640d0c2e6d60731b604482015260640161028e565b6020830151604051631af6c43160e01b815260048101919091527f00000000000000000000000000000000000000000000000000000000000000006001600160a01b031690631af6c43190602401602060405180830381865afa158015610534573d6000803e3d6000fd5b505050506040513d601f19601f820116820180604052508101906105589190610992565b6105a45760405162461bcd60e51b815260206004820152601760248201527f556e737570706f727465642043616c6c47756573744964000000000000000000604482015260640161028e565b505050565b60606001826040015160018111156105c3576105c3610635565b036106045750602081810151519151604080516001600160e01b03199092169282019290925260248082019390935281518082039093018352604401905290565b815160208084015160405161061a9392016109b4565b6040516020818303038152906040529050919050565b919050565b634e487b7160e01b600052602160045260246000fd5b602081016002831061066d57634e487b7160e01b600052602160045260246000fd5b91905290565b80356001600160a01b038116811461063057600080fd5b80356001600160e01b03198116811461063057600080fd5b6000806000808486036102808112156106ba57600080fd5b610220808212156106ca57600080fd5b86955085013593506106e190506102408501610673565b91506106f0610260860161068a565b905092959194509250565b634e487b7160e01b600052604160045260246000fd5b604051610100810167ffffffffffffffff81118282101715610735576107356106fb565b60405290565b6040516080810167ffffffffffffffff81118282101715610735576107356106fb565b60405160a0810167ffffffffffffffff81118282101715610735576107356106fb565b80356002811061063057600080fd5b600061014082840312156107a357600080fd5b6040516060810181811067ffffffffffffffff821117156107c6576107c66106fb565b6040529050806107d58361068a565b8152602084603f8501126107e857600080fd5b6107f0610711565b8061012086018781111561080357600080fd5b602087015b8181101561081f5780358452928401928401610808565b5081602086015261082f81610781565b6040860152505050505092915050565b600081830361022081121561085357600080fd5b61085b61073b565b6108658585610790565b81526101408401356020820152610160840135604082015260a061017f198301121561089057600080fd5b61089861075e565b91506108a76101808501610673565b82526108b66101a0850161068a565b60208301526101c084013560408301526101e08401356060808401919091526102009094013560808301529283015250919050565b600061014082840312156108fe57600080fd5b6109088383610790565b9392505050565b606081526000845180606084015260005b8181101561093d5760208188018101516080868401015201610920565b506000608082850101526080601f19601f830116840101915050836020830152826040830152949350505050565b8082018082111561098c57634e487b7160e01b600052601160045260246000fd5b92915050565b6000602082840312156109a457600080fd5b8151801515811461090857600080fd5b6001600160e01b03198316815260006004820183825b60088110156109e95781518352602092830192909101906001016109ca565b50505061010482019050939250505056fea2646970667358221220e3b8f65998d26fec2d3e0710a21f12d388e3d7b3efa73c621c5be45adbc15a8964736f6c6343000818003360a060405234801561001057600080fd5b5060405161090438038061090483398101604081905261002f91610041565b6001600160e01b031916608052610072565b60006020828403121561005357600080fd5b81516001600160e01b03198116811461006b57600080fd5b9392505050565b6080516108646100a06000396000818160610152818160ee015281816101fa015261025f01526108646000f3fe608060405234801561001057600080fd5b50600436106100575760003560e01c8063053c238d1461005c5780631599ead5146100a15780633a115bb1146100b657806366cf0e4b14610149578063ab750e751461015c575b600080fd5b6100837f000000000000000000000000000000000000000000000000000000000000000081565b6040516001600160e01b031990911681526020015b60405180910390f35b6100b46100af3660046105cc565b61016f565b005b61013c6100c4366004610607565b604080518082019091526060815260006020820152604080518082019091526001600160e01b03197f000000000000000000000000000000000000000000000000000000000000000016606082015260648101839052806084810160408051601f198184030181529190528152602001929092525090565b6040516100989190610644565b61013c61015736600461068a565b610189565b6100b461016a3660046106ac565b6101ba565b61018661017c828061072b565b83602001356101d7565b50565b6040805180820190915260608152600060208201526101b36100c46101ae85856102fc565b61038a565b9392505050565b6101d184846101cc6101ae86866102fc565b6101d7565b50505050565b6101e5600460008486610779565b6101ee916107a3565b6001600160e01b0319167f00000000000000000000000000000000000000000000000000000000000000006001600160e01b0319161461029257610236600460008486610779565b61023f916107a3565b604051632e2ce35360e21b81526001600160e01b031991821660048201527f0000000000000000000000000000000000000000000000000000000000000000909116602482015260440160405180910390fd5b60408051602081018390520160408051601f1981840301815291905280516020909101206102c38360048187610779565b6040516102d19291906107d3565b6040518091039020146102f75760405163439cc0cd60e01b815260040160405180910390fd5b505050565b610304610587565b6040805160a0810182528481527fa3acc27117418996340b84e5a90f3ef4c49d22c79e44aad822ec9c313e1eb8e260208201528151808301835290918201908060008152602001600060ff1681525081526020016000801b815260200161038160405180604001604052808681526020016000801b8152506104ef565b90529392505050565b60006002806040516103b4907172697363302e52656365697074436c61696d60701b815260120190565b602060405180830381855afa1580156103d1573d6000803e3d6000fd5b5050506040513d601f19601f820116820180604052508101906103f491906107f9565b6060840151845160208601516080870151604088015151601890600281111561041f5761041f6107e3565b60408a810151602090810151825191820199909952908101969096526060860194909452608085019290925260a084015263ffffffff909116901b60e01b6001600160e01b03191660c082015260f89190911b6001600160f81b03191660c4820152600160fa1b60c882015260ca015b60408051601f19818403018152908290526104a991610812565b602060405180830381855afa1580156104c6573d6000803e3d6000fd5b5050506040513d601f19601f820116820180604052508101906104e991906107f9565b92915050565b6000600280604051610513906b1c9a5cd8cc0b93dd5d1c1d5d60a21b8152600c0190565b602060405180830381855afa158015610530573d6000803e3d6000fd5b5050506040513d601f19601f8201168201806040525081019061055391906107f9565b83516020808601516040805192830194909452928101919091526060810191909152600160f91b608082015260820161048f565b6040805160a081018252600080825260208201529081016105b8604080518082019091526000808252602082015290565b815260006020820181905260409091015290565b6000602082840312156105de57600080fd5b813567ffffffffffffffff8111156105f557600080fd5b8201604081850312156101b357600080fd5b60006020828403121561061957600080fd5b5035919050565b60005b8381101561063b578181015183820152602001610623565b50506000910152565b602081526000825160406020840152805180606085015261066c816080860160208501610620565b60209490940151604084015250506080601f909201601f1916010190565b6000806040838503121561069d57600080fd5b50508035926020909101359150565b600080600080606085870312156106c257600080fd5b843567ffffffffffffffff808211156106da57600080fd5b818701915087601f8301126106ee57600080fd5b8135818111156106fd57600080fd5b88602082850101111561070f57600080fd5b6020928301999098509187013596604001359550909350505050565b6000808335601e1984360301811261074257600080fd5b83018035915067ffffffffffffffff82111561075d57600080fd5b60200191503681900382131561077257600080fd5b9250929050565b6000808585111561078957600080fd5b8386111561079657600080fd5b5050820193919092039150565b6001600160e01b031981358181169160048510156107cb5780818660040360031b1b83161692505b505092915050565b8183823760009101908152919050565b634e487b7160e01b600052602160045260246000fd5b60006020828403121561080b57600080fd5b5051919050565b60008251610824818460208701610620565b919091019291505056fea2646970667358221220a25b61e6b914b060548bba5e77f01705e7d2312312d8c0925dce54cc0860bc2264736f6c63430008180033","linkReferences":{}},"methodIdentifiers":{"_setTestVerifier(address)":"9b8b30c8","approve(address,uint256)":"095ea7b3","balanceOf(address)":"70a08231","currentTokenId()":"009a9b7b","getApproved(uint256)":"081812fc","isApprovedForAll(address,address)":"e985e9c5","name()":"06fdde03","ownerOf(uint256)":"6352211e","prover()":"32a8f30f","safeTransferFrom(address,address,uint256)":"42842e0e","safeTransferFrom(address,address,uint256,bytes)":"b88d4fde","setApprovalForAll(address,bool)":"a22cb465","supportsInterface(bytes4)":"01ffc9a7","symbol()":"95d89b41","takenEmailHashes(bytes32)":"5889d3ea","tokenIdToMetadataUri(uint256)":"e9997c52","tokenURI(uint256)":"c87b56dd","transferFrom(address,address,uint256)":"23b872dd","verifier()":"2b7ac3f3","verify(((bytes4,bytes32[8],uint8),bytes32,uint256,(address,bytes4,uint256,uint256,bytes32)),bytes32,address,string)":"977aa54b"},"id":74}